:020000040000FA
:1000000000400020D567010011680100136801005D
:1000100000000000000000000000000000000000E0
:100020000000000000000000000000001568010052
:1000300000000000000000001768010019680100BE
:100040001B680100990B0000756501001B68010029
:100050001B68010000000000859801001B6801007A
:100060001DDF00001B680100219801001B680100D2
:100070001B6801001B6801001B6801001B68010070
:100080001B680100E15E01001B6801001B680100A4
:100090001B680100619601003197010065E00000D6
:1000A00075E000001B680100000000000000000077
:1000B0000000000000000000000000000000000040
:1000C00008B5054B054803331B1A062B03D9044B0F
:1000D000002B00D0984708BD10010020100100201F
:1000E000000000000648074908B5091A8910CB0F1F
:1000F0005918491003D0044B002B00D0984708BD75
:1001000010010020100100200000000010B5074C75
:100110002378002B09D1FFF7D3FF054B002B02D02A
:10012000044800E000BF0123237010BD100100202F
:100130000000000080B3030008B5094B002B03D07A
:100140000848094900E000BF08480368002B02D1B5
:10015000FFF7C8FF08BD064B002BF9D09847F7E71B
:100160000000000080B303001401002010010020F3
:1001700000000000144B002B00D1124B9D46402282
:1001800092029A1A924600218B460F461148124A53
:10019000121A2BF083F80D4B002B00D098470C4B14
:1001A000002B00D098470020002104000D000B48D0
:1001B0002AF04DFF20F058FF2000290028F029FDEB
:1001C00020F09EFC0000080000400020000000001D
:1001D0000000000010010020FC2F0020190E02007A
:1001E00010B5041C0C2028F050FB034B4460036046
:1001F0000223037210BDC046B4BB020010B5041C3C
:10020000102028F042FB044B0360237A03716368DB
:1002100083600023C36010BD4CBB020010B5041CFA
:10022000102028F032FB044B84600360034B4360D2
:100230000023C36010BDC046B0C80200772A020088
:1002400008B5043022F0BFFF004808BDCCCA020048
:10025000F8B5041C0D1C0B7A124A9B00995822F029
:1002600050FD1149201C22F04CFD281CFFF7C6FF51
:100270000126071C381C22F008FC051E0CD0002E9D
:1002800003D1201C094922F03CFD201C291C01221D
:100290000BF008F80026EDE7201C054922F031FD9F
:1002A000F8BDC0460CBA0200742503007725030090
:1002B0007A250300F7B50B681C4A041C0D1C9342F9
:1002C00003D01B495A6822F0E8FD201C194922F08E
:1002D00018FD002301270193281C01A922F0B6FB79
:1002E000061E15D0002F03D1201C134922F009FD52
:1002F0000122201C31680AF0D5FF1049201C22F091
:1003000000FD201C716801220AF0CCFF0027E3E702
:10031000201C0B4922F0F5FC2B68044A934203D0C1
:10032000201C084922F0EDFCF7BDC0466CBA020063
:100330007D2503008125030077250300322E03006D
:10034000569B0300EC740300002806D001280BD153
:100350004B68DB085B00184307E007224B68034843
:10036000934302D1024800E0002070472CD70200DE
:1003700070D7020038B5151C1A1C1C1C03F004F9B8
:10038000002802D04368002B0ED12B1E08D1094B48
:10039000022C05D10849094822F09DFD15F013FAF9
:1003A000012C05D1436003E0022C01D10022426000
:1003B000181C38BDCCCA020083250300C8C7020040
:1003C00030B5002585B001A9041C019522F03EFB43
:1003D000A84205D10A490B4822F07DFD15F0F3F93A
:1003E000636802A9083B6360036802934368039350
:1003F000042328C0022015F0AFF805B030BDC04678
:100400008B250300C8C7020073B50C1C151C1B28E4
:100410000BD000231F2839D1081D111C002203F026
:10042000B3F81B4B002831D118E00323194208D13F
:100430000A6818498A4204D12B4002D129689142A6
:1004400024D0154BAA0721D1144A296891421DD105
:1004500062686B6853400722934301D00E4B15E04E
:100460000193201C01A922F0F1FA061E0DD0281DCF
:100470003168002203F088F8031EEFD070685968D5
:100480000AF08EFF0028ECD1E8E7014B181C76BD7E
:100490002CD7020030BA020070D702006CBA0200FA
:1004A000F0B51368141C012287B00F680D1C009270
:1004B000D9080223061C05F093F9022E22D103234A
:1004C0006868034016D10268D1682C4A914211D164
:1004D0002A68904216D00593686805A922F0B6FAFA
:1004E000061E0FD0381D3168012203F04DF87368E5
:1004F0004360F1E702F01AF80390039802F064F801
:10050000002801D1002526E002F010F8051C02F0B9
:100510005BF80290281C02F057F8061C281C02F019
:1005200053F8029B002B03D0002E01D0002805D0E9
:100530001349144822F0CFFC15F045F9381D0299F3
:10054000012203F021F84660D7E7A368EE0099592D
:10055000002904D1013563689D42F6D30AE00429DD
:10056000F8D0381D012203F00FF8A3689E197368B4
:100570004360EFE7044807B0F0BDC0464106000005
:10058000AA250300E8C10200CCCA020010B5041C71
:100590000C2028F07AF9034B4460036000230372B7
:1005A00010BDC046B4BB020010B5041C0C2028F0DE
:1005B0006CF9034B446003600123037210BDC04615
:1005C000B4BB020008B50430002202F0DDFF0028B1
:1005D00005D10449044822F07EFC15F0F4F8406887
:1005E00008BDC04683250300C8C7020008B5024BFA
:1005F00008C022F0C9FD08BD6CBA0200F8B5071C9E
:1006000048680E1C01F092FF041C0BF037F80B4DEC
:10061000022F00D9B568002800D0401022F089FAD6
:10062000061C201C01F0D0FF011E05D0301D012248
:1006300002F0AAFF4560F4E7301CF8BDCCCA020006
:10064000F0B5071C89B000201E1C0D1C019222F081
:1006500070FA0E4B041C07609F4203D104220379F9
:1006600013430371019B2B430DD03368AA00B218CA
:1006700005A801990394049322F098FD681C03A92E
:1006800005AAFFF70DFF201C09B0F0BD30BA02002B
:1006900008B5002A02D122F08FFA11E0042A0DD108
:1006A0000430002202F070FF002805D105490648F9
:1006B00022F011FC15F087F8406802E022F072FA8F
:1006C000024808BD83250300C8C70200CCCA020047
:1006D0002022074B07491A701D3A5A7004329A704B
:1006E00000220548DA7059601A725A727047C04683
:1006F0003001002074696275CCCA020008B5034954
:10070000034822F0E8FB15F05EF8C0460726030018
:10071000E8C1020002220A4B10B5DA67002201216B
:10072000084B5A61084A11615A69002AFCD0074CEB
:10073000A06F002803D028F0CFF80023A36710BDD6
:1007400004E100E0FC10004000100040A82E002052
:1007500008B5FFF7DFFF014808BDC046CCCA02005C
:10076000F8B5FFF7D7FF334C2678657801360135A9
:100770007543281C28F089F800222F4B45199867EB
:100780002E4B80191D602E4B012118602D4B5A6095
:100790008022D20511605A68002AFCD003212A4B1E
:1007A00061562A4A00259950A178043A9950617AF5
:1007B000083299506168264A08269950217A254ABC
:1007C000254F99500121254A9D5004329950244AC1
:1007D0009E5022788124A4042243A324E4001A51C9
:1007E0000222204C1A51204C1F51204F043C1F5113
:1007F00018271F4C1F511F4C1851C120C0248000C6
:100800001E501D48640002510260802080001A586A
:10081000713CFF3C22431A50184A55605960536896
:10082000002BFCD00022154B1A61074B01329A6055
:10083000F8BDC04630010020A82E00202C01002069
:100840003C010020FC000040001000400C050000AE
:100850001C05000024050000FFFF00002C0500001F
:1008600014050000340500003C05000021100100C3
:10087000540500000405000000E100E0FC10004009
:1008800008B5FFF76DFF014808BDC046CCCA02009D
:10089000F0B5161C8DB0002804D07149714822F0C3
:1008A0001AFB3CE0704B09AA191CB0C9B0C21A78F7
:1008B0009F7805925A78DD7806925A6804900192E2
:1008C0001A7A5B7A0392029308E0631EFA2B00D92E
:1008D000C0E0E3B20593049B01330493049B726868
:1008E00093421ED2049BDB000793079AB3689B18C0
:1008F0001A68002AEFD0042AEDD058680AF0CEFD1D
:10090000B368079A041C985805F092FB574B021CD9
:10091000C01806287AD95648564901F013F914F040
:1009200052FF554B09AC9B6F002B13D16B461B7DBF
:10093000A77023706B461B7EE5706370019B0A9362
:100940006B461B7B23726B461B7A6372464B07CC4C
:1009500007C382E06B461B7D434E23706B461B7EB4
:100960006370228833889A4210D0FFF7D3FE019B30
:10097000A7700A936B461B7BE57023726B461B7A4C
:1009800063720ECC0EC6FFF7EBFE66E002223B4B15
:100990003B49DA6700238C464B613A4B013A1A61B6
:1009A00063465B69374A002BFAD06946019809AB68
:1009B0000A90087BDD701872087A9F7058722A4876
:1009C0006DB252CB52C0304B0298D550043BD75039
:1009D0000833D05001982D4BD05003982C4BD05059
:1009E0000020274B58600123536063465B68002B4F
:1009F000FBD00022C021224B49001A61214B013259
:100A00009A60244B01325A501A6026E019F048F8D7
:100A10005DFF07000D00110016001B001D00631E86
:100A2000FD2B17D8E3B2069355E7642C12D8E7B232
:100A300051E7072C0ED8184B1D5D4CE7022C09D846
:100A4000E3B2029347E7019445E7FF2C02D8E3B2F3
:100A5000039340E7064811495FE711480DB0F0BD28
:100A60001C260300D8C602003001002028FDFFFF2D
:100A7000E8C1020040260300A82E002004E100E0A7
:100A8000FC100040001000400C0500001C05000098
:100A90002405000000E100E0FF25030056260300C6
:100AA000CCCA0200F7B5324A0B1C956F002D01D15C
:100AB000FFF724FE02212F4C2F4EE167A324E40010
:100AC00034592E4FE4B201342C193D682C4A01965A
:100AD000A54202D111602B4849E02578002813D1A6
:100AE000611C002B04D1081C291C05F097FA1AE0A0
:100AF00058682A1E824200D9021C012618682AF072
:100B0000B9FB6B001E4319E0022D0ED96378012B4F
:100B10000BD1A278002A08D1E378012B05D1201D42
:100B2000E91E05F063FA061C08E00223144A164980
:100B30001360164822F0CFF914F045FE691CED430E
:100B40003B6861185A1A201C00932AF093FB009B03
:100B5000019A5D190E4B3D60D55000220D4B301CA3
:100B60001A610123019A9360054ADB181360FEBDE8
:100B7000A82E002004E100E0001000403C0100200D
:100B800000E100E0CCCA02007B260300E8C10200BD
:100B900004050000FC100040184B30B55A68184995
:100BA000002A03D000225A6001328A601B69002BA0
:100BB00022D00022114B13481A61A323104ADB00F4
:100BC0000468D3582278DBB29A4201D91A1C2370E8
:100BD0008025ED004D59012D0CD10B4D02339B1892
:100BE0002D68E3189D4205D30132A2180260074B1D
:100BF0000348C25001238B6030BDC046FC1000404A
:100C0000001000403C0100202C01002004050000E1
:100C1000F7B5364D0C1CA96F844601921E1C0029A5
:100C200001D1FFF76BFDA3233148DB00C258A319A4
:100C3000D2B2071C934204D9161B944201D9141C4A
:100C4000002633190B70AB6F6146581C221C2AF02A
:100C500008FB002E06D0AB6F013418190199321C25
:100C60002AF0FFFA0222234BDA670022224B5A6154
:100C700001323A615A691E49002AFBD00024A86F4C
:100C80001E4A88501C48446001200860111C5A68A4
:100C9000002AFCD00120164A90600020164A1061FC
:100CA0001869134A0028FBD01548006850500020EE
:100CB00011494861012111615A69002AFCD00021C3
:100CC0000D4A51600A4A013151605A68002AFCD02D
:100CD0000022C021084B49001A61054B01329A607D
:100CE000084B01325A501A60F7BDC046A82E0020AA
:100CF0000010004004E100E0FC100040040500008A
:100D00003C01002000E100E007B501A905F026FE46
:100D10000321021C019B0248FFF77AFF01480EBD28
:100D2000FB250300CCCA02001FB5012201A90AF06D
:100D300049FD002201980299131CFFF769FF014841
:100D400005B000BDCCCA0200014B58687047C046D0
:100D5000A82E0020014B18687047C046A82E00201E
:100D6000F0B5194E87B03368051C00200C1C0193A8
:100D700021F0DFFE30600090206822F076F9019BC0
:100D8000071C3360114E022D03D0A0680AF070FAE0
:100D9000061C211C63680831A81E039314F0DCFBB9
:100DA000009B04900593301C03AB0321002201F04B
:100DB000C3FA074B041C9F4203D0381C211C27F0A8
:100DC000B1FB201C07B0F0BDA82E002054CC0200BF
:100DD000CCCA0200F8B50326051C071C3540022DBD
:100DE00015D10E4B0340062B11D0FF23DB05C41891
:100DF000B443201C002119F039F800280BD08023BF
:100E00001B06E018B043064B2843C01804E0381C0A
:100E100000F094FF00E0381CF8BDC046070080FFDA
:100E20000000808010B501F081FB041C201C01F043
:100E3000CBFB002805D00AF045FC0028F6D102487B
:100E400000E0024810BDC04670D702002CD7020057
:100E500010B501F06BFB041C201C01F0B5FB002851
:100E600005D00AF02FFC0028F6D0024800E0024826
:100E700010BDC0462CD7020070D7020007B5044B46
:100E80000190694602200022009306F0DBFA0EBDB5
:100E90000604000008B50AF071FA034B002800D1DF
:100EA000024B181C08BDC0462CD7020070D70200A8
:100EB00037B50AF0C7FA01AB7F2802D818700121B4
:100EC0003CE02149820988420AD8402149420A432C
:100ED0001A703F221040BF3A1043587042312DE043
:100EE0001A49040B88420ED8202149420C431C7039
:100EF00080245F310A4064420840224320435A70F4
:100F000098703C391AE01249884211D81025810C9A
:100F10006D42294319703F21703D0C400A40084042
:100F20002C432A4328435C709A70D8703B3905E003
:100F30000849094821F0CFFF14F045FC181C012294
:100F400005F054F83EBDC046FF070000FFFF00005B
:100F5000FFFF10009B260300E8C1020008B5021C39
:100F600002490A2001F070FB08BDC046BE04000023
:100F700008B5021C02490A2001F066FB08BDC04604
:100F80003E050000F0B585B002900192101C0C1CCB
:100F900000223249039302F0F7FA0090002801D0B2
:100FA00043680093029B012B03D000252E1C019562
:100FB0003CE02068002401F0B9FA271C0290029856
:100FC00001F002FB051E17D0009B2E1C002B04D045
:100FD000181C291C22F050F8061C002C09D003987C
:100FE000311C3A1C01F030FB1D4B984201D0251CEE
:100FF0003E1C2C1C371CE2E7221E2BD101981949FC
:1010000002F0C2FA002801D0426823E016491748CE
:1010100021F061FF14F0D7FB009B002B0AD1276859
:10102000002E0DD12668019701350434029B9D42A4
:10103000F2D10EE00098216822F01EF8071CEFE7BD
:101040000398391C019A01F0FFFA054B9842EBD145
:10105000E8E7321C101C05B0F0BDC046D606000003
:101060002CD702001E050000BC260300E8C10200C8
:1010700037B501A9051C05F071FC1E4B041C2B4063
:10108000062B05D0AB072AD12A681B4B9A4226D1E2
:10109000201C019922F07AF90190012822D12078B0
:1010A00043B2002B04DB012320784000184320E0EA
:1010B0007F23013418403F3B184202D098435B1015
:1010C000FAE722783F23111C9943802904D180013B
:1010D000134001341843F4E721F068FF09E0019B55
:1010E000012BE0D00549019A054800F02BFD14F0D2
:1010F0006AFB3EBD070080FF70DD0200D5260300BD
:10110000D8C60200F0B587B0141C02900391101CE1
:101110002349002202F038FA2249051C0022201C33
:1011200002F032FA0123041C049305931E4F002D94
:1011300007D068681D4B984203D004A905F00EFC47
:10114000071C1B4D002C07D06068184B984203D039
:1011500005A905F003FC051C0024029B154E9C42CA
:1011600012D0002C07D00023301C00930193391CAF
:10117000049A00F08DF9039AA300D158301C002284
:101180000AF090F80134E8E70023301C0093019343
:10119000291C059A00F07CF9044807B0F0BDC04650
:1011A000EE050000F60500001A300300CCCA02006C
:1011B000147B030098C102007FB50D4DA84214D0E6
:1011C000041C0C4E0122301C211C0AF06BF80A4949
:1011D000301C21F096FD04230293084B0394DB6935
:1011E0000748032102AA01939847281C04B070BD48
:1011F000CCCA020098C10200147B030048E302003D
:1012000048BD020010B5041C86B002A86A46102131
:101210000BF026F86846211C01220AF043F802A9C7
:10122000024804F0ADFE06B010BDC04670DD0200FD
:1012300070B50C68031C201CE2074AD4A20703D136
:10124000244A2568954244D0012B1FD948680AF0EA
:10125000F9F8061C201C0AF059F9051C301C19F07D
:1012600009FD011C1C481CF009FC041C211C281C45
:1012700019F030FA1CF0B4F8211C19F039F80323E6
:101280009843013B1843154BC01822E0201C0AF07C
:101290003DF9061C1CF0A4F8051C19F0CBFC291C18
:1012A000041C301C19F048FBFC218905051C18F0B2
:1012B000D7FD002801D0013406E0BF21281C090613
:1012C00018F0CEFD002801D001239C43201C21F002
:1012D0006DFE70BD280303000000204100008080E7
:1012E00013B5041C081C04F0A3FE6A46011C201C54
:1012F00001F0A0F8009B0248002B00D1014816BD68
:101300002CD7020070D7020037B50024022800D97C
:101310008C6848680D6804F08BFE094B011C002C9A
:1013200000D0084B281C6A4698470098002805D032
:101330000199002903D009F08DFF00E0201C3EBD7B
:10134000952400003524000038B5051C081C141C29
:1013500004F06EFE221C011C281C01F0C3F8014899
:1013600038BDC046CCCA020008B501F007F9002814
:1013700004D1034821F0A2FD14F025FA08BDC046AF
:1013800094C4020030B50B1C85B0141C012805D98B
:101390000A490B4821F09FFD14F015FA0948012174
:1013A000C2680192019D0022A84703A90390221C54
:1013B000012009F01DFC039805B030BD0F27030084
:1013C000D8C6020008E20200F8B50E1C002803D1BE
:1013D0002A4B041C1D6823E0086883070AD10368B0
:1013E000274A934203D123F059FE051C0EE0254AFB
:1013F000934201D009F03CFF856B002D06D02A688E
:10140000214BD31A594259414B421D40306809F0D3
:101410002FFF1E4BC26800249A4201D13468043465
:101420000020011C23F00DFE0027061CBD4209D13F
:101430000025AC4216D11FE0EA68FB00995800294C
:1014400004D10137AB689F42F6D3F1E70429F8D005
:10145000301C09F069FBF4E7A268EB0099580029F9
:1014600004D1013563689D42F6D305E00429F8D024
:10147000301C09F059FBF4E7301CF8BDA82E002001
:1014800048E3020054CC02006CBA0200B1400000F4
:10149000F0B587B0039205910D9A0399051C541A73
:1014A0000CAA12782021101C884305D0302A05D0C0
:1014B0000CAA0292012204E0224A00E0224A02928F
:1014C0001022019280221A4005D0E30F1B195B10F5
:1014D000E71A1C1C03E001210B4012D11F1C002C39
:1014E00012DD261C019B04969E4200DD04936B686E
:1014F00028680299049A9847049BF61A002EF1DC9A
:1015000003E0271C141C00E00024039B002B06D0E2
:101510001A1C28686B6805999847039BE418002FEC
:101520000DDDE419019B3E1E9E4200DD1E1C286855
:101530000299321C6B689847BF1B002FF2DC201CFD
:1015400007B0F0BD5D2703004C270300F0B593B052
:101550001F1C18AB10CB05901B780D1C161C079395
:10156000CB070BD48B0703D1814B0A689A4205D075
:10157000281C09F067FF01254000054381231C4218
:1015800009D1079B302B06D11A9B1B9A934200DA94
:101590001A9200231B93281C21F0E5FC0AAA131CB5
:1015A00000280DDDA30703D52B231370123B05E0A4
:1015B000131C620704D520221A70192304AA9B1851
:1015C000E20618D5022E03D130221A707A1C10E0E0
:1015D000082E08D130221A70A20501D401330AE086
:1015E0003A1C0E3205E0102E05D130221A703A1C3A
:1015F00017325A70023300220AA91A705B1A069336
:10160000A30600D52C320EAB0B9310230C930023B2
:101610001B990D93012901DD40210C4304A9CB75D1
:10162000FBB20096610614D500210293019103924A
:101630002B1C0BA80CA90DAA10F01EFA0378061C8F
:101640002D2B15D104AAD3750D9B0136013B0D93AB
:101650000EE00AA90191029303922B1C0BA80CA97E
:101660000DAA10F009FA1B9B061C012B4BDC02E0B3
:101670001B9B012B6ADC00273D1C630621D517212B
:1016800004ABC9180B78002B0AD000230122009369
:1016900001920598FFF7FCFE1A9B2D18013B1A9347
:1016A000069B002B0DD00023012200930192059888
:1016B000069A0AA9FFF7ECFE1A9B069A2D189B1AA8
:1016C0001A931B9B012B00DD1A93079B059800932F
:1016D0001A9B311C01930D9A231CFFF7D9FE2D187C
:1016E000002F09D02023002200930197059821495B
:1016F000131CFFF7CDFE2D180B980EAB984234D07B
:1017000027F0EAF831E00D9A1B9B93421CDB1A9AF2
:10171000934206DA0127D51A274004D02F1C002552
:1017200001E000273D1C01239C43002D09D000222D
:101730001F330093019505980E49131CFFF7A8FE6F
:10174000051C3023079398E7131CE0E70D9A1B9BB9
:10175000934200DA131C172204A952181278511E62
:101760008A419B18069A9B18D1E7281C13B0F0BD3C
:1017700028030300572A0300F0B5071C00248DB08E
:1017800005920D1C2B78002B09D18D420BD96E1AB6
:101790003868321C7B689847A419291C03E0252B64
:1017A000F3D00135EEE70B78002B00D134E1202394
:1017B0000026013109930B78002B12D02D2B01D17B
:1017C0002C3B02E02B2B02D1293B1E430FE0202BA8
:1017D00001D11C3BF9E7212B01D1193BF5E7302B57
:1017E00002D00023069304E04022099316430131FE
:1017F000E1E70B781A1C303A092A07D80A22069822
:1018000001314243D318303B0693F2E708912E2B67
:1018100027D14B782A2B05D00B1C013308930023CA
:1018200007930CE0089B02330893059B1D1D1B6862
:101830000793DB43079ADB171A40079215E0089BD2
:101840001B781A1C303A092A09D80A2207994A43F8
:10185000D318303B0793089B01330893EFE7059DAE
:1018600003E00123059D5B420793089B1B786C3BBB
:1018700059425941089B5B1808931B780493002B2D
:1018800000D1C9E0642B00D187E013D8502B00D1E0
:1018900091E004D8453B022B00D89CE0B2E0049BC9
:1018A000622B1AD032D8582B00D0ABE02B1D0593F9
:1018B000412383E0049B712B34D005D8672B00D8DB
:1018C00089E0702B77D09DE0049B752B58D0782B46
:1018D00071D0732B00D095E036E02B1D05932B685B
:1018E000002B07D0099B381C0093069B4C490193A1
:1018F000042206E0381C0522099B4A490093069BF6
:101900000193331CFFF7C4FD241882E02B1D0593BF
:101910002B680BA90B70099B381C0093069B0122B6
:101920000193EEE72B1D0BA92868059326F053F8C9
:10193000079B011C013301D10B9B0793099B381CAA
:101940000093069B019311E02B1D2D680593002D3C
:101950000ED0079B013303D1281C29F0A4FD07906A
:10196000381C291C099B0093069B0193079AC8E722
:10197000099B381C0093069B2B4901930622C0E764
:101980002B1D059361230093099B01960293069BEF
:10199000381C0393296800220BE02B1D059361235B
:1019A000381C01220093099B01960293069B039326
:1019B00029680A230CE02B1D059361230093099BE2
:1019C000381C0293069B002203931023019629687A
:1019D00021F0A5F998E7072307359D432B1C2868BC
:1019E0006968083305931BF015F8099B011C0093E7
:1019F000069B381C0193079B049A0293331C21F029
:101A0000FDF981E73868089901227B68984701341D
:101A1000059508990131B4E6201C0DB0F0BDC04613
:101A20003A2703003F27030045270300F7B51F1C93
:101A30000023061C0093081C0D1C111C1A1C0B4BC8
:101A400003F0CEFE102026F02DFF041E04D1084A1C
:101A5000084B094CDA6104E0281C391C13F07CFDAA
:101A6000E06000232660201CA360FEBDFFFF000095
:101A700088170300A82E0020B82E002010B50138CA
:101A800010C913F069FDE060004810BDCCCA020027
:101A9000F8B57F23171C151C041C0E1C1F409A430D
:101AA0000AD17B1E012B07D80B68586825F08EFFE2
:101AB000011C201C21F025F9022F04D1201C0F4904
:101AC00021F01FF901E0002F12D1F368002B02D0A2
:101AD0005A68002A04D1201C094921F012F90CE0AF
:101AE000012A05D1201C9968002209F0DBFB04E0E3
:101AF000201CF1682A1C13F0C3FCF8BD322E030031
:101B0000572A0300C36803485A68002A00D098681F
:101B10007047C046CCCA0200136810B5002B0ED126
:101B20007D2902D1C368136009E0054B04689C421B
:101B300005D1BA2903D1141CFFF7E4FF206010BDC2
:101B400094C402000EB470B5051C87B0102026F0B6
:101B5000A9FE041E06D11B4B1B4A1D619861DA6168
:101B60001A4C29E0002105608160012013F0F4FC8B
:101B70000B9B051CE060002B1ED0181C252129F0B2
:101B80007AFC061E08D10B9829F08DFC321C011C32
:101B90000B9804F02BFA0EE002A8102123F08FFD21
:101BA0000CAA02A80B9901920AF0BAFB084802A9F4
:101BB000E56804F0E5F9A860201C07B070BC08BC1B
:101BC00003B01847A82E002088170300B82E002065
:101BD00070DD020008B5031C820708D1064A0168BF
:101BE000914204D1054AD9680120914203D0181CC2
:101BF000034902F01DFC08BD54CC02002D1A000060
:101C000054C5020010B5041C09F032FB034BC26836
:101C10009A4200D024690023A36010BD2D1A000051
:101C2000F7B5161C0193041C0F1C09F021FB174B80
:101C3000C2689A4200D02469A568002D09D10C2001
:101C400026F030FEA06000281ED00323E580A3808C
:101C500010E0E388A18802338B420BDB033189005B
:101C6000281C012226F034FE00280DD0A388A06095
:101C70000333A380E288A16893000332E280019AD3
:101C8000CB181F605E609A60F7BDC0462D1A000039
:101C900070B5151C041C0E1C09F0EAFA064BC2684C
:101CA0009A4200D02469A368002B01D1336001E07F
:101CB000E28832602B6070BD2D1A000010B5102034
:101CC00026F0E3FD041C034B08C025F0EAF8201CB5
:101CD00010BDC0462803030038B5052827D80D1CC1
:101CE00017F0D4FE05250D03141C081C20E0081D68
:101CF00025F003FA031E0F481AD00F4818E0081DFC
:101D000025F01AFD01214000084311E0FFF7D6FF3E
:101D1000291D041C043025F026FA06E0FFF7CEFF4B
:101D2000291D041C043025F02EFA201C00E00020A0
:101D300038BDC0462CD7020070D7020038B5051C4C
:101D400083070CD1104B02689A4208D1FFF7B6FF07
:101D5000041C291D043025F0FBF9201C12E0281C6E
:101D600009F070FBC0231B06984205D1802000219A
:101D7000C00521F00CF905E0C317C0185840012335
:101D80004000184338BDC0462803030038B5051C81
:101D90001BF098FA012802D10F48104903E00028EF
:101DA00005D10F480F49FFF7CDFE13F00CFD281C9D
:101DB00026F020F8002806D1281C18F03BFF01244B
:101DC0004000204307E0FFF779FF041C291C043082
:101DD00025F0E6F8201C38BD14C702006E2703006A
:101DE000E8C102008727030007B5C30701D54010EB
:101DF0000DE0043001A90DF08BFD002801D0019801
:101E000005E00349034821F066F813F0DCFC0EBD41
:101E1000A027030014C70200F0B58DB00190012087
:101E200008400D1C171C041E07D04B1003A802A964
:101E3000022225F075F803AE08E003230B4065D1BC
:101E40009A4A0968914200D025E12E1DFB0707D56B
:101E50007B1003A802A9022225F062F803AD1AE064
:101E600003231F4205D1914A3968914201D13D1D9A
:101E700011E03B40022B00D011E18D4B3B40062B83
:101E800000D10CE1301C25F0AAFC3A1C011C019881
:101E900002F0F4FF08E1019B092B01D0162B16D1AB
:101EA000281C25F02AF900283DD1301C25F097FC8C
:101EB000041C281C25F093FC011C201C18F018FAA7
:101EC0000323022498437B4B0443E018ECE0019B7E
:101ED000182B00D9BAE0FFF7F1FE041C019817F0A7
:101EE000D5FD6A706476760D10171DDC478E946AF6
:101EF000706476760D10171DDC478E00201D311C96
:101F00004FE0201D311C2A1C25F00FFA201CCBE0CD
:101F1000201D311C2A1C25F049FBF7E7281C25F061
:101F2000ECF8002802D06448644957E006A8271D51
:101F300024F0B7FF321C2B1C381C06A90DF092FBB5
:101F40002A7833785340DB070ED506A825F0D5F85C
:101F5000002809D1012109A8494224F0D7FF381CE3
:101F6000391C09AA25F0A6F906A824F0A6FFCDE79A
:101F7000281C25F0C2F80028D5D109A8271D24F077
:101F800090FF321C2B1C09A8391C0DF06BFB09A813
:101F900024F093FF2A7833785340DB07B6D5381CFA
:101FA000391C2A1C25F086F9B0E7201D311C2A1C9B
:101FB00025F003FAAAE7201D311C2A1C25F07DFA22
:101FC000A4E7201D311C2A1C0DF0D8FA9EE7381C0E
:101FD000FFF70AFF021E05DA39483A4920F07BFF75
:101FE00013F0F1FB019B201D311C032B01D0102BA2
:101FF00002D10DF057FA89E725F0FCF886E7201D9D
:10200000311C2A1C25F055FB80E7281C25F075F8AB
:10201000002888D1FFF752FE271D0190321C2B1C8F
:102020000430391C0DF01EFB2A7833785340DB074F
:1020300004D5381C391C2A1C25F03CF9019B09A940
:10204000022009930A9413F087FA2DE0301C291C12
:1020500025F058F8019A031C193A0020042A23D8C5
:10206000101C17F013FD0307130B0F001648002B6D
:102070001ADA0EE01448002B0BDC15E01248002B96
:1020800012DC06E01048002B03DA0DE00E48002BAE
:102090000AD10E4808E0181C06E0002004E0019870
:1020A000291C3A1C0FF0B0FD0DB0F0BD2803030051
:1020B000070080FF0000808044C60200CD27030097
:1020C000E8C10200DE27030070D702002CD702000F
:1020D0000D4B73B530CB161C012804D94D682C1C50
:1020E000022800D08C68086801A904F037FC011CA4
:1020F0002C20019A0023FF3006F0ACFA311C2A1C78
:10210000231C00F077FF76BDA82E002070B50DF0DF
:1021100085FC0B4C0026231CA4331E60266308F0AC
:10212000F5FF084D0121281CFEF760FA281C6E21DE
:102130005E2220F037FD65602560666470BDC04694
:10214000A82E0020DC2E002070B50624134EC300FC
:102150001C4373680022051C211C181D01F014FA91
:10216000021E18D1706C002807D00430211C01F029
:102170000BFA002801D040680EE000220848211C1C
:1021800001F002FA021E06D106492A1C0648FFF792
:10219000D9FC13F018FB506870BDC046A82E002073
:1021A0002CC10200F3270300D4C302000A4B10B570
:1021B000041C18685B6898420AD00621E3000430CA
:1021C0001943002201F0E0F9002801D0406802E044
:1021D000201CFFF7B9FF10BDA82E002008B5074B43
:1021E000586C002801D1064807E00430262100225F
:1021F00001F0CAF90028F6D0406808BDA82E0020DA
:1022000050BE02000A1C062108B5034BC000014362
:10221000186820F0C7FC08BDA82E0020062108B5CC
:10222000034BC0000143186820F0C6FC08BDC0463F
:10223000A82E00200A1C062108B5034BC00001434C
:10224000586820F0AFFC08BDA82E0020062108B574
:10225000034BC0000143586820F0AEFC08BDC046E7
:10226000A82E002038B5051C0C1C062806D1081C19
:1022700009F028FA00284CD028484DE001231942E3
:1022800017D04810042D06D0052D0FD0002D42D1B7
:102290000028F1D03DE0C0221206904204D18020F7
:1022A000C00520F083FE37E0404200E0C04340001C
:1022B00013E0022813D11A4B0B40062B08D08B07D2
:1022C0000DD10B689A69174B9A4208D1486802E011
:1022D000C80825F071FB0123400018431CE0201CB6
:1022E00008F0C6FF4369002B0DD10F4BAD00201C39
:1022F000ED5822F01BFF0D49031C2A1C0C48FFF768
:1023000021FC13F060FA281C211C9847002803D1F7
:10231000EBE7084800E0081C38BDC04670D7020053
:10232000070080FF3D6F0000D8CD02000C2803009D
:10233000D8C602002CD70200F8B5041C1D1C0F1CC7
:10234000161C08F095FF0369201C9C46002B08D141
:1023500022F0ECFE0549021C0548FFF7F3FB13F0E1
:1023600032FA391C321C2B1CE047F8BD2A28030026
:10237000D8C60200F8B5061C0D1C171C1C1C002931
:102380000BD0186808F074FF7368984205D00649AE
:10239000064820F0A0FD13F016FAB068291C3A1C7C
:1023A000231CFFF7C9FFF8BD46280300D8C602006A
:1023B000F8B5061C0F1C141C1D1C930714D11368C0
:1023C000174A934202D163682B6028E0154A934272
:1023D00007D1002802D008F04BFF071C636888C5AE
:1023E0001DE0114A934201D12C6018E05B681A1C71
:1023F000F23A012A01D9F02BF6D1002E0ED1201C81
:1024000008F036FF094B984208D10C2026F03DFA1F
:10241000074B476003608460286000E050C5F8BD4A
:1024200090CD020054CD020054CC0200F40A030007
:1024300068C80200F8B5002313605360071C0C1C29
:10244000151C08F015FF061C102C05D1836A002B03
:1024500002D00F4B88C519E0F369002B04D0381C5B
:10246000211C2A1C984711E0B06B00280ED00621D1
:10247000E4001A1C0430214301F086F8031E05D045
:102480005A68381C311C2B1CFFF792FFF8BDC04660
:102490001CC1020070B5161C041C0D1CFFF7CAFFFE
:1024A0003368002B15D10B4EA30707D10A4B2268C6
:1024B0009A4203D1301C0949626805E0201C22F0D1
:1024C00035FE021C301C06492B1CFFF73BFB13F0AA
:1024D0007AF970BD0CC5020054CC02005E280300DE
:1024E0008528030073B5041C0D1C161C08F0C0FEE3
:1024F000C369002B09D0042201960092201C291CDC
:102500006A469847009B002B0AD0201C22F00EFE42
:102510000449021C2B1C0448FFF714FB13F053F969
:1025200073BDC046852803000CC5020013B5041C0A
:1025300008F09EFE436A002B0BD1201C1A216A462C
:10254000FFF778FF009B002B08D0684610F01CFFB7
:102550000EE0201C984700280AD1EEE7201C22F04C
:10256000E5FD0449021C0448FFF7ECFA13F02BF9CF
:1025700016BDC046A7280300D8C6020037B5041C04
:1025800008F076FE856A201C002D01D0A84716E0D1
:1025900010216A46FFF74EFF009B002B05D0281C38
:1025A000291C6A4620F070FD09E0201C22F0BEFDC7
:1025B0000349021C0348FFF7C5FA13F004F93EBDB6
:1025C000C3280300D8C6020030B5051C8FB008F040
:1025D0006BFA281C08F04CFE846A281C002C01D0E1
:1025E000A04728E010216A46FFF724FF009B002B3C
:1025F00017D002A813F0CCF8011E07D16A4620F0CC
:1026000043FD041C13F0DAF8201C14E0039B0B4973
:10261000186801F00DFF031C201C002B0BD1039840
:1026200007E0281C22F082FD0549021C0548FFF73F
:1026300089FA13F0C8F80FB030BDC04694C4020048
:10264000C3280300D8C60200F0B585B002900E1C66
:10265000171C202802D1914214D1A1E1029B1B2B0F
:1026600001D01E2B10D1301C391C08F099FE002817
:1026700003D0029B1B2B05D192E1029BBA481B2B76
:1026800000D099E1B94897E1029B212B2AD1101C77
:10269000FFF7A0FA002807D0301C391C20F025FCD9
:1026A000002800D07CE1EDE703243C4000D042E16B
:1026B000AF4B3A689A4200D03DE17B689C42E1D240
:1026C000A300FB189D68281CFFF784FA002800D19E
:1026D00030E1301C291C20F008FC002800D05FE10C
:1026E0000134EAE70123194200D1EAE04D101A4211
:1026F00000D1DEE0029B54101D2B00D91BE1181CF9
:1027000017F0D8F91E0020002300260038003F00F3
:10271000410043004E0056006B007400A3001E00F1
:1027200020002300260038003F00410043004E00F7
:1027300056006B007400BC00C0001901C400C80042
:10274000254300E065402E1CA8E02C40261CA5E097
:10275000002C02DA8748884902E11F2C6FDC874B86
:1027600023419D426BDCC0231B0623419D4266DB57
:10277000A540E8E7002CEDDB1F2C00DD1F242541E0
:10278000E1E72E198AE02E1B88E0281C211C02F0AC
:1027900041FC002853D101206C43640020430BE12D
:1027A000002C00D1DAE0281C211C21F076F81BE077
:1027B000002C00D1D2E0281C18F05CFA051C201C6B
:1027C00018F058FA011C281C17F092FD032302256B
:1027D00098436B4B2843C018EEE0002C00D1BDE0BD
:1027E000281C211C21F049F8061C57E0002C02DBB4
:1027F0000395012617E0281C18F03CFA0323022653
:1028000098435F4B0643F61889E0E3070ED4012C8A
:1028100044D003986410011C02F0FCFB00280ED188
:10282000039B5B430393002CEFD137E0301C0399EB
:1028300002F0F0FB002802D1039B5E43E7E7E917B3
:10284000281C20F0A4FB061C69E0002C00D185E0C8
:102850000021022012F080FE211C061C281C21F001
:102860001CF8012740003843B060211C281C21F0CF
:1028700004F8B8403843F060301C9DE0A54200DB0E
:1028800000E78DE0A54200DCFCE689E0A54200DD22
:10289000F8E685E0A54200DAF4E681E073001A1C50
:1028A000724002D40120184386E0301C20F07EFBE9
:1028B00082E003231340022B03D1324B1340062B3B
:1028C00070D1029B1F2B2AD1381C08F0D1FC8369E0
:1028D000051C002B07D16B6A002B16D0381CFFF7A4
:1028E00025FE041C0BE00298391C321C9847002876
:1028F00062D1F0E7311C08F053FD002850D1201CB4
:10290000FFF762FE0028F5D1BCE6381C22F00EFC71
:102910001D49021C1D48FFF715F912F054FF301C29
:1029200008F0A6FC8369002B05D00298311C3A1CE4
:1029300098473FE02F1C029B301C9A00144BD5583F
:1029400022F0F4FB041C381C22F0F0FB114900902B
:102950002A1C231C0D48FFF7F5F8DEE70E480F4947
:1029600020F0B9FAD9E7C0462CD7020070D7020090
:102970004C170300E8C10200DE270300FFFFFF3F02
:1029800000008080070080FFA7280300D8C602004F
:1029900090CC0200E228030044C60200CD270300C9
:1029A000064809E0281C18F065F93A1C011C029839
:1029B00002F064FA0028BED005B0F0BD2CD70200AA
:1029C000F0B513688DB00693002803D1131D03934F
:1029D000041C03E0131C546808330393FF220B1CF0
:1029E00013400193090A1140019A4B0005939B186B
:1029F000039A9B00D558D3185F680491381E09D0FC
:102A00000020BB0706D17F4B3A689A4202D1381C9E
:102A100020F0C5F8049BC618002D16D1019B760046
:102A200001339B199800009325F02FFF251C061CED
:102A3000002C01D001250460019BA8009A003018E9
:102A4000039928F00EFC019B30E0AB0731D12B68D5
:102A50006D4A934202D06D4A93422AD1281C09A99B
:102A60000AAA08F091FD099B019A01339B18760090
:102A70009B199800009325F008FF251C061C002CCC
:102A800001D001250460019BA8009A000399301829
:102A900028F0E7FB019B0A99E818099B80009A003F
:102AA000301828F0DEFB019B099A9B185B190293F2
:102AB00038E0019B7600181D83199800009325F0DB
:102AC000E4FE0294061C002C02D001230460029351
:102AD000029B03999800019B30189A0028F0C1FBD3
:102AE000019A029B9446281C63440293FFF71EFD43
:102AF000029B07909C000798FFF766FD051E11D00A
:102B0000029B009A934207D3301CD10025F0D3FEDC
:102B1000061C009B5B000093029B3551013302931E
:102B20000434E8E7029B9800049B3018DA00019B0C
:102B30009900039B591828F094FB029A059B944630
:102B400063441C1C002F4ED00325381C3D4019D176
:102B50002C4B3A689A4215D120F037F841688D42E3
:102B600041D08368EA009F58002F09D0042F07D076
:102B7000A300F7508768F318BA18526802345A60F5
:102B80000135ECE7C5210AAAFFF784FC00200AAA58
:102B9000011C20F079FAFFF7C9FCA500019001980B
:102BA000FFF712FD071E1ED0009A631C93420BD341
:102BB00053000093032B01D804230093009B301C87
:102BC000990025F078FE061C09AA381C022108F09D
:102BD000FDFC099B02341B687351099B5A687319E9
:102BE0005A600835DBE7029B0698E21A191C520866
:102BF000331CFFF7A1FB041C301C25F06DFE201CCC
:102C00000DB0F0BD6CBA02004C17030008E20200E0
:102C100073B50C1C161C83071FD10368224A93420C
:102C200007D0224A934218D1694601AA22F021FA1C
:102C300003E0694601AA25F03EFF009BA34227D38B
:102C40002AD80023019DA000A3422CD09900421A4B
:102C5000043AAA5801337250F6E7FFF767FC0023E5
:102C6000051C0093009B281CA3420CD2FFF7ACFC70
:102C700000280DD0009A0E49A31A5B189B00013260
:102C800098510092EEE7FFF79FFC00280BD003E07D
:102C900008480949009A02E0221C06480749FEF745
:102CA00051FF12F090FD73BD4C17030008E20200C3
:102CB000FFFFFF3FE8C10200072903002A290300A4
:102CC000F7B5141C0A0AFF230E1C151C1E401D40DC
:102CD00083073CD107683E4B9F4203D03D4B9F4248
:102CE00035D104E0694601AA25F0E5FE09E0FF239D
:102CF0001143194201D1206068E0694601AA22F01F
:102D0000B8F9009BAA19934259D39A00944600201F
:102D100001998200A84206D06746BF1A043FCF59E6
:102D20000130A750F5E79B1BB500181A4919A418E4
:102D300022F087F9019B20605D19002301360133E1
:102D4000B34243D09A0051426958A150F7E7FFF7C8
:102D5000EDFB0023071C0093009BB3420CD2381CF0
:102D6000FFF732FC00282AD0009AB31A5B199B00A7
:102D7000013218510092EFE70020011C22F061F9A6
:102D8000061C381CFFF720FC011E03D0301C07F086
:102D9000CBFEF6E7B168A94211D3AB00E3181E6081
:102DA00088009C4206D0C21AF768A218D259043B88
:102DB0001A60F6E7491B301C22F060F906E006496C
:102DC000009A0648FEF7BEFE12F0FDFCF7BDC046B5
:102DD0004C17030008E2020007290300E8C10200C3
:102DE000F0B587B01D1C061C0C1C019208F040FABF
:102DF0002F4B984206D1301C211C019A2B1C0BF042
:102E000095FB53E0876A2B4B002F07D09C4220D1C3
:102E1000301CB8472860002816D147E09C4218D1E2
:102E2000301C102103AAFFF705FB039B002B0DD1DB
:102E3000301CCD2103AAFFF72DFB012000210594B2
:102E400003AA20F021F9286001202FE0381C391C4A
:102E5000F6E7002CECD1019B201C002B26D0181C7F
:102E600008F006FA144901F0E3FA00280FD0301CEC
:102E7000CC2103AAFFF7DEFA039B002B07D0201C0E
:102E8000211C03AA20F000F92860201C0EE0301C51
:102E9000CE2103AAFFF7CEFA039B002B03D001201B
:102EA000002101AACDE70220019B2B6007B0F0BDF5
:102EB000B0EB0200CCCA02008CC7020010B5041CA3
:102EC000FEF788FE002806D00021201C0A1C0B1CDF
:102ED000FFF732FA0AE0201C20F001F8031C201C46
:102EE000002B03D1024803491FF0F5FF10BDC04677
:102EF000D8C60200522903007FB50623C00018433C
:102F0000054B01900491052001A9029303930592BA
:102F100004F002FF07B000BDCCCA02000C23F0B5DC
:102F20008BB000AFFA18051C0C1CFFF783FA3B6945
:102F3000002B06D02B49221C2B48FEF703FE12F073
:102F400042FCF86800284AD1281C21F051FE0028D4
:102F5000F0D00C23281CFA180D21FFF76BFA082378
:102F6000F868F91803F0FAFC3860201CBD6824F0FA
:102F700028FD6A4601352B187B600E33DB08DB0029
:102F8000D31A9D46BD6839682A1C684628F069F93D
:102F90006E462E23201C735524F018FD3860201C2B
:102FA00024F00FFD01357519021C3968281C28F022
:102FB00058F9796868460CF073FD0623C000184381
:102FC0000A4B0822BB61FB61094BBA183B62012323
:102FD0007B620B337861D118052004F09DFEBD465D
:102FE0000BB0F0BD7C29030090C50200CCCA0200E2
:102FF0002CD70200F0B5174C0F1C616895B00391F7
:103000002168061C08A804916260236012F0C0FBCE
:10301000051E06D0039B09986360049B236012F091
:10302000D2FB336805A8311C3A1C01930FF050FA0B
:103030002A1C2B1C019905A80AF06EFD20F015F83A
:10304000051C12F0BBFB281C039B6360049B2360E0
:1030500015B0F0BDA82E002010B5041C0DF0CAFA62
:10306000031E064803D006491FF035FF03E005495B
:10307000221CFEF767FD12F0A6FBC04668C20200E4
:1030800092290300BB290300011C08B502481FF068
:1030900022FF12F098FBC04680C60200A123002147
:1030A000024A5B000248D1527047C046A82E002059
:1030B000CCCA0200A1230121024A5B000248D1527E
:1030C0007047C046A82E0020CCCA0200A123044AA3
:1030D0005B00D35A0348002B00D103487047C04619
:1030E000A82E00202CD7020070D7020008B504F0EB
:1030F000EDFB014808BDC046CCCA020008B5036814
:10310000186B00280ED0CB0702D50368002B09D01E
:103110008B0702D54368002B04D04B0708D5836882
:10312000002B05D1034904481FF0D5FE12F04BFBDC
:1031300008BDC046E929030098C30200F0B501218B
:1031400089B00190FFF7DAFF8021061C490004A82E
:1031500022F0B5FA80240023069D6400009303AB9F
:103160000198291C221C3768B847431C0ED10399CB
:103170000B2904D1009B1848002B21D12AE0012300
:103180004900194315481FF09FFE14E0002817D08E
:10319000009B1B180093A04202D2241A2D18DEE7D0
:1031A000802104A8490022F0D9FA051E05D10B4858
:1031B0000B49FEF7C7FC12F006FB80246400CEE743
:1031C000009B08480593337BDB0700D4064804A91D
:1031D00002F0D6FE09B0F0BDCCCA020098C30200CE
:1031E000082A030070DD02006CD90200F0B589B036
:1031F0000091041C08680121FFF780FF071C012CC7
:1032000004D1009B1868FFF799FF98E0009B58686D
:1032100008F018F9051C431CF3D001243B7B234222
:103220006DD0041C291C04A822F049FA0023019344
:10323000002C62D0211C04A822F0A9FA011E04D19E
:1032400040494148FEF77EFC1FE0009B3E6818683D
:10325000221C03ABB047031C061C013317D1211CF1
:1032600004A822F001FB03990B2908D1059B0093C8
:10327000002B42D104A822F04CFA34485FE001232D
:103280004900194332481FF01FFE12F09CFAA04279
:1032900002D30699059C14E0211A04A822F0E4FA4E
:1032A000002EF6D129E0101C1E3398431D3BC02888
:1032B0000ED1019A9B18A3421BD8013DA34216D2FE
:1032C0000193019BCA5C012350B20028F1DAEAE7BE
:1032D000101C0D3398430C3BE028EAD004339A438A
:1032E000131CF03B5A425A4105239B1AE1E72C1C60
:1032F0009DE7013B5B191C1B9AE716481CE0291C43
:1033000004A822F0F3F9009B2A1C1868069903AB65
:103310003D68A847431C09D104A822F0FAF9039993
:103320000A480B290BD049002143ABE73B7B0590B2
:103330000848234200D1084804A902F021FE09B040
:10334000F0BDC046162A030068C20200CCCA0200C3
:1033500098C3020070DD02006CD902007FB50C1C1E
:10336000061C08680121FFF7C9FE0222051C01A9FD
:10337000606808F027FA029A022E07D9A06808F0C0
:1033800061F8029B021E9A4200D91A1C6B462D68F6
:1033900020680199A847431C0BD1009907480B29C5
:1033A0000AD001234900194305481FF08DFD12F092
:1033B0000AFA01234000184304B070BDCCCA0200D1
:1033C00098C30200F0B589B00191041C086801217E
:1033D000FFF794FE061C04A8012C08D9019B5B682A
:1033E0005C10631C03D0211C22F069F913E0012456
:1033F000102122F064F964420DE0019B391C186829
:10340000012203AB3568A847431C11D0002823D004
:103410003B780A2B2AD0631C23D104A8012122F077
:10342000B6F9071EE9D116491648FEF78BFB11E0E5
:1034300003990B2908D1059B0193012B0CD104A8FA
:1034400022F067F9104819E00123490019430F4899
:103450001FF03AFD12F0B7F904A8012122F004FA96
:1034600004E0631E002C01D01C1CD6E7337B084807
:10347000DB0700D4074804A902F082FD09B0F0BDC3
:10348000162A030068C20200CCCA020098C30200D8
:1034900070DD02006CD90200F7B50F1C0221041C7C
:1034A000161CFFF72BFE01AB4568391C201C321C93
:1034B000A847431C0BD1019907480B290AD00123C7
:1034C0004900194305481FF0FFFC12F07CF9012365
:1034D00040001843FEBDC046CCCA020098C302009B
:1034E00013B5041CA068FFF76FF8019000280ED0F8
:1034F0006368074A934205D0181C0121002201ABE2
:10350000FEF71AFF08F0DEF80028EBD0019816BD90
:10351000CCCA020070B5041C0D1C10491FF0F1FB51
:103520006968201C012207F0BDFE0D4E201C311CD5
:103530001FF0E7FBA968201C012207F0B3FE311C35
:10354000201C1FF0DEFBE968201C012207F0AAFE08
:10355000201C04491FF0D5FB70BDC046242A03007F
:1035600077250300EC74030070B5061C10200D1CB9
:10357000141C25F08AF9034B466085600360C46023
:1035800070BDC04634CA0200F0B5067887B0B307F4
:1035900002D5002A00D0F2E0F307DB0FDBB2029382
:1035A000002B0ED0774B0B40062B0AD003230B4089
:1035B00003D1754C0D68A54202D0012A01D0DEE08E
:1035C000029301920D1C041C730749D50368876898
:1035D000DE08F600BE19B74211D23868A84204D1FD
:1035E000019B022B00D0A1E09EE0029B002B04D1A6
:1035F000291C07F0D5FE0028F2D10837EBE7019B24
:10360000012B00D0BBE02368D9086368994210D130
:1036100004316160A068C90025F04DF92368626833
:10362000DB08D21ADB00A060D200C018002127F00E
:1036300035FE07222068C308591CC90002400A430E
:103640002260A268DB004F49D3181D60181C0D4092
:10365000062D00D194E0012122788A4322708FE068
:103660004368002B05D1019B012B00D087E000F0BF
:103670008DF8444B2B400493062B04D1E80824F02A
:103680009BF9039005E00220291CFEF7EBFD431097
:1036900003930398616816F09DFA00260091059146
:1036A000009BDF00A368DF19386800281AD1019B4E
:1036B000311C012B63D12068C3080133DA000723D2
:1036C000034013432360002E00D1391C00234B60BC
:1036D000049B0D60081C062B52D0012223789343D3
:1036E00023704DE0042803D1002E21D13E1C1FE0A1
:1036F000A84203D1019B022B18D108E0029B002BAA
:1037000016D1291C07F04CFE002811D0F2E72368DF
:103710006168083B23600098013016F05BFAA368EB
:10372000C900CB58002B00D004233B60381C27E095
:1037300000986168013016F04DFA059A00919142A7
:10374000AED1019B012B1AD1002E0ED02368083375
:10375000236000237360049B3560062B03D023781D
:10376000019A93432370301C0AE0201C00F00EF8ED
:103770000398616816F02EFA0091059190E70020F9
:1037800007B0F0BD070080FF70DD0200F7B54368A9
:10379000041C0193591C0023174A9A588A4205D2E7
:1037A00004335C2BF8D101250D4300E0151CE80023
:1037B000A76825F07CF80723226865601340012282
:1037C0003D1C0026236013432370A060019B9E4292
:1037D0000DD02968002907D0042905D0201C01221A
:1037E000FFF7D2FE6B68436001360835EEE7381C00
:1037F00025F072F8F7BDC04670CA02000022F8B585
:103800000768051C8668781C114BD358834205D283
:1038100004325C2AF8D10123184300E0181C00246C
:1038200028606C60800025F042F8A860BC420BD094
:10383000A300F158002905D0042903D0281C012237
:103840001FF0E0FC0134F1E7301C25F045F8F8BD2D
:1038500070CA0200054B002805D00023022802D1BF
:1038600001224B001343181C7047C04670D702005A
:1038700008B502491FF045FA08BDC0469C81030007
:10388000F0B593B0061C06A80F1C141C11F080FFA5
:10389000051E23D13368311C012603A83A1C01936D
:1038A0000EF016FEA3082A1C3340019903A80AF063
:1038B00033F9051C032011F0F3F9281C1FF0D5FB88
:1038C0000120404211F0ECF911F078FF344203D0AE
:1038D0001348311C11F018FA012518E0012040426C
:1038E00011F0DEF901210C4202D00D4811F00CFA62
:1038F000079807F0BDFC0B4900F09AFD051E04D1A6
:103900000948079907F0F2FC01E080256D000121CC
:103910000C4202D0024811F0F7F9281C13B0F0BD98
:10392000562A030008C3020098C102001FB52021D7
:10393000684621F0C4FE254825F017F8684621F0B6
:10394000F3FE234825F011F811F0C6F90128F2D052
:1039500002280AD11F4825F008F8684621F0D9FE50
:1039600001221D4B00201A702DE0032803D1684668
:1039700021F0DAFEE8E7042804D0C1B2684621F05D
:103980002BFFE1E7154824F0F0FF019A002A08D147
:10399000104824F0EAFF684621F0BBFE802040007A
:1039A00011E0962002994000002304F053FE002805
:1039B00003D10B481EF01CF8C0E701210A1CFFF7D9
:1039C0005FFFC305BAD505B000BDC0462B2A030072
:1039D0002A730300137B0300E2000020462A030041
:1039E000492A030030B587B002A8202121F067FEE4
:1039F000444824F0BAFF444824F0B7FF02A821F05D
:103A000093FE02A8414924F0C1FF012809D1404892
:103A100024F0ABFF02A821F07CFE00203D4B187083
:103A20006EE0022803D13A4824F09FFFE0E7032824
:103A30001AD0042808D1364824F097FF02A821F0B4
:103A400068FE802040005BE0052825D1324824F044
:103A50008CFF02A821F068FE11F03EF96B46C1B25E
:103A6000DC1D2170032901D12948C5E7042904D1AF
:103A7000274824F07AFF012427E002A821F0ACFEB9
:103A800023780D2B03D1254824F06FFFE4E7201C99
:103A9000012111F039F9DFE702A821F058FE0028D2
:103AA000ACD002A821F085FE07F09CFE00280BD0C8
:103AB00002A80A2121F090FE02A8194924F066FF0D
:103AC0000328D1D00428ECD1002402A821F038FE2C
:103AD000051C02A821F03BFE021C9620291C400078
:103AE000002304F0B7FD002803D10E481EF052F861
:103AF00084E7211C0622FFF7C3FEC30500D47DE73F
:103B000007B030BD582A03009D2A0300C32A0300D2
:103B1000137B0300E2000020C82A0300F82A0300F8
:103B2000FF2A0300D880030000237F2803D8034B1B
:103B30001B5C9B07DB0F181C7047C0462A2B030039
:103B400000237F2803D8034B1B5C1B07DB0F181CCB
:103B50007047C0462A2B030000237F2803D8034B5D
:103B60001B5C5B07DB0F181C7047C0462A2B030049
:103B700000237F2803D8034B1B5C5B06DB0F181C5C
:103B80007047C0462A2B030000227F2808D8054B27
:103B90000132195C0C23194202D15F384242424182
:103BA000101C70472A2B030000237F2803D8034BE7
:103BB0001B5CDB06DB0F181C7047C0462A2B03007A
:103BC00000237F2803D8034B1B5C9B06DB0F181CCC
:103BD0007047C0462A2B0300F0B5114B87B003ADE8
:103BE00040C9013800930195032301F02BFE68685A
:103BF0000C4C1E27A04202D023F003FF071CA8682C
:103C00000022A04202D023F0FCFE021C706803993F
:103C10000771427111F00CFE201C07B0F0BDC046C8
:103C2000E4CB0200CCCA020030B5124B8BB003AC1F
:103C300020C9013800930194032301F003FE06A874
:103C4000616821F053FD039B089A5900237A009381
:103C50006868079B12F094FF021E05D006490748CA
:103C6000FDF770FF11F0AFFD06A9054802F088F9D5
:103C70000BB030BD18CB0200AA2B030098C3020082
:103C80006CD9020030B5114B89B002AC20C90138A3
:103C900000930194032301F0D5FD606805A901227A
:103CA00007F090FD029B059A5900237A00936868FB
:103CB000069B12F0AFFF021E05D005490548FDF72F
:103CC00041FF11F080FD044809B030BD50CB020027
:103CD000CD2B030098C30200CCCA020008B50348EC
:103CE0000349044A1FF0D9F8034808BD98C10200EF
:103CF0008D750300F12B0300CCCA020008B5034800
:103D00000349044A1FF0C9F8034808BD98C10200DE
:103D10008D750300352D0300CCCA0200F8B5041CD4
:103D20000D1CA368002B0AD0334AE968914206D0E3
:103D3000EB58002B03D00422E3681A605AE0A86B0A
:103D4000002820D0062163680430DB0019430022DC
:103D5000FFF71AFC031E16D0227C002A02D0002096
:103D600021680BE02068002807D0234AE9689142C7
:103D700003D0224A954200D00069291C5A68E368A2
:103D8000FEF716FB36E02368002B03D16E6B002E86
:103D900014D12FE0227C002AF8D1174AE968914219
:103DA000F4D0164A9542F1D018696168E268FEF7CE
:103DB00041FBE3681B68002BE8D01BE07568083600
:103DC000002D17D000276B1E0C4A9F420CD2BB005F
:103DD000F158914206D0201CFFF7A0FFE3681B6852
:103DE000002B07D10137EEE7054BED18AD00AD59BB
:103DF000954296D1F8BDC046B140000078E402007B
:103E0000FFFFFF3FF0B5146889B0002C1FD1436855
:103E10005E6B002E1BD0171C736803AD0193836883
:103E2000083603936960AC60EA602C74019B9C4285
:103E300009D0A300F158281CFFF770FF3B68002B46
:103E400005D10134F2E7281C0249FFF767FF09B0EA
:103E5000F0BDC04678E4020008B50B1C02495A6860
:103E60001FF01BF808BDC0460D2E030070B50E1CD8
:103E700000218AB0041C151C05A814220091019190
:103E800027F00CFA202307936B46059408931C2314
:103E9000002D02D0042D07D11A23216805A806930E
:103EA000FFF73CFF022106E01B23216805A80693CB
:103EB000FFF734FF03210098042805D12069311C45
:103EC0002A1C07F04BFC0DE000280BD002AB0022AF
:103ED000029403960495FEF72FFA031C0248042D62
:103EE00000D1181C0AB070BDCCCA0200F0B5204B3E
:103EF00082008BB0D25805AE00237260142201906C
:103F000003AF05910D1C301C096803937B60B26000
:103F1000F7603374FFF702FF039C042C05D101986E
:103F20002969FEF79FF9041C1EE0002C0DD0201C0F
:103F3000291C1FF0A1F8019B041C022B14D107F0CF
:103F4000ADFA0124400004430EE0019B022B0BD18B
:103F50002433301C29687360FFF7E0FE3B68002BB8
:103F600002D101246D002C43201C0BB0F0BDC046D3
:103F7000D8CD0200F0B5161C7242724189B00C1CFB
:103F80001F3200230492082201A903AD0691071CE9
:103F90002168281C019302932B7403940592FFF768
:103FA000BDFE019B002B08D1002E06D11F33281C1B
:103FB00021686B60AE60FFF7B1FE0198042819D14B
:103FC000206907F055F9164BC2689A420ED1002EAF
:103FD00007D02368586823F0F9FC011C381C1EF038
:103FE00090FE8022381C324321690BE0381C216985
:103FF000321C07E0002808D0211C1FF03DF80022E9
:10400000011C381C07F04EF908E0201C21F08EF846
:104010000449021C231C381C1EF03FFF09B0F0BDF0
:104020002D1A00001A2E030038B5041C0D1C0B4974
:104030001EF067FE6968201C002207F033F9201C7F
:1040400007491EF05EFEA968201C002207F02AF92D
:10405000201C04491EF055FE38BDC0462C2E03001E
:10406000772503002A730300F7B50025436808305D
:104070000F1C061C2C1C0193019B9D4212D0AB000F
:10408000F358094A93420BD0084AD968914202D0AA
:104090003B60013404E0586B391CFFF7E5FF24183E
:1040A0000135E9E7201CFEBD78E40200B1400000C4
:1040B000F0B58FB0051C0F1C406B05A9019202934F
:1040C000FFF7D2FF061DB600301C24F0DEFB041CF7
:1040D000002120C01FF058F8321C201C103A10306C
:1040E000002127F0DBF8012F05D1029B1B68039309
:1040F000042B00D183E00922002309A8426007AE07
:104100000332291C8260C6600374079373600993AD
:10411000FFF704FE0798042807D10598391CC668E4
:10412000019A029BB047206123E0002821D0019A28
:104130003A4306D1012106AB0695FEF7FDF8041CB3
:1041400017E0019B5C003C190134A400201C24F002
:104150009CFB221F0390029920C027F082F8791C53
:104160003068019A039BFEF7E7F8041C039824F0DB
:10417000B3FB201C07F07CF8A84240D100230822A2
:1041800009A8291C089307930B9309940A92FFF737
:10419000C5FD079B002B32D00199394305D1081C7E
:1041A00007AA1EF071FF061C1CE0019B5E00BE19F1
:1041B0000236B600301C24F068FB321C051C079B3D
:1041C000083A03600393089B02994360083027F084
:1041D00048F8381C01992A1C1EF056FF061C281CA2
:1041E00024F07AFB074B9E4209D0301C20F09EFF42
:1041F0000549021C0548FDF7A5FC11F0E4FA201C56
:104200000FB0F0BDCCCA0200352E0300D8C60200A4
:1042100038B5C568041C002D06D1044962680448FD
:10422000FDF790FC11F0CFFAA84738BD5D2E0300D2
:10423000D8C60200F8B5041C0F1C161C1D1C1FF06C
:10424000D0F8002809D1201C20F070FF0949021C79
:104250000948FDF777FC11F0B6FA042801D120696E
:1042600002E0211C06F0F6FF391C321C2B1CFEF765
:1042700063F8F8BD2A280300D8C60200F0B5154B34
:1042800089B0161C8200D5580C1C0C220021071C7A
:10429000684627F003F8182303A8456083600025CB
:1042A0006B462168C36005740394FFF737FD0098DF
:1042B000042805D1381C2169321CFEF7C5F907E036
:1042C000002805D00120291C6A4602961EF0DCFE5B
:1042D00009B0F0BD90CC0200F0B585B0071C0D1CF4
:1042E000081C161C01A902AA24F0E5FB0023019971
:1042F00002988B420CD09A008258D468002C05D1C9
:10430000234952682348FDF71DFC26E00133F0E7FE
:104310003C2024F0CCFA204B041C03601F4B476068
:1043200083601F4B4563C3601E4B866303611E4B56
:1043300003A943611D4B83611D4BC3611D4B036288
:104340001D4B43621D4BC362281CFFF78DFE0128E5
:1043500005D910481A491EF0BEFD11F034FAA36BBE
:104360004E21181D0022FFF70FF9051E0DD0032264
:1043700043681A4009D11B685B68F22B05D1031D05
:10438000012110481FF088F86860201C05B0F0BDBE
:104390007A2E0300D8C6020054CC0200753F0000FC
:1043A000B140000035420000ED3E00007D420000BB
:1043B0000D3402006D3E00005D350200193502002B
:1043C000A32E030090CD020037B51C1C00230D1C4A
:1043D0000093081C0333111C012201F001FA012D86
:1043E00009D0032D0BD1206801F022FE6168A2687C
:1043F000FFF772FF09E0206806F03AFF05E0034985
:1044000003481EF068FD11F0DEF93EBDD12E030019
:10441000D8C6020038B5051C0C200C1C24F035FA57
:10442000024B45600360846038BDC04618CD020071
:10443000F8B50F1CB8421ED0032404401DD1134B05
:1044400002689A421BD1466B002E1AD07568083656
:10445000002D18D06B1E9C4208D2A300F058391CC6
:10446000FFF7E6FF00280FD10134F3E7084BED1802
:10447000AD00A859DEE7012006E0002004E0201C82
:1044800002E0301C00E0281CF8BDC04654CC0200FD
:10449000FFFFFF3FF0B585B0051C0191081C8B079D
:1044A00010D10B68154A934204D10123029301AB4A
:1044B00003930DE0124A934204D102A903AA24F007
:1044C000FAFA05E00F4910481EF005FD11F07BF9DE
:1044D0000024029E039FB4420BD0A300F9580B4B5B
:1044E000994208D0281CFFF7A3FF002803D101340C
:1044F000F1E7074800E0074805B0F0BD54CC0200E2
:104500004C170300ED2E0300D8C6020078E4020029
:1045100070D702002CD7020008B5830703D1064BE1
:1045200002689A4205D0054905481EF0D4FC11F0F6
:104530004AF9FFF7AFFF08BD54CC0200262F030055
:10454000D8C60200F0B5214B8DB005AC0138009300
:1045500004310194072301F075F9A0681C4D002770
:10456000A84202D006F06EFFC7B260691826A842C2
:1045700002D023F046FA061CA0691922A84202D0F4
:1045800023F03FFA021C2069A8420DD003AA0221A1
:1045900007F01CF8039B186823F033FA039B061CF2
:1045A000586823F02EFA021C71B252B203A811F01F
:1045B0006BFF03A8059911F0C3FF03A861683A1CBB
:1045C000E36811F0CDFF281C0DB0F0BD74CE0200E1
:1045D000CCCA020008B510F073FB034B002800D1D1
:1045E000024B181C08BDC0462CD7020070D7020031
:1045F000F0B5051C8BB008680C1C02F099F904900A
:1046000004A81FF021F80027049B03900693069B43
:104610001978002912D0081CFFF79EFA01260028FD
:1046200007D006A81FF022F8069B1B78732B00D03A
:10463000061C069BBF1901330693E8E7381C10F0EF
:104640008BFF0122009007A9606807F0BBF8079B69
:10465000089A05939B1801920293022D0AD9A0682B
:1046600006F0F0FE002802DA089BC01826D4059B4D
:104670001818059000240DE0291C01F0CFFC059BC3
:10468000009A5D19A31C9B00059501349850049B6A
:1046900001330493BC4230D2049B187800282CD0FC
:1046A000FFF75AFA0125002803D004A81EF0DEFF08
:1046B000051C0598029A43199A4205D210491148DF
:1046C0001EF009FC11F07FF8049B1B78732BD3D0EC
:1046D000009BA6009E190195019B0436002B0AD071
:1046E000049B0398197805AA0CF08EFB019B70605F
:1046F000013B0193F0E76419C9E700980BB0F0BDE6
:10470000492F0300E8C10200F0B589B0039101927E
:104710001E1C02F00DF9049004A81EF095FF002560
:104720000290B5424ED2049B187800284AD0FFF779
:1047300013FA0124002803D004A81EF097FF041CDC
:10474000039B019A1B199A4205D21F491F481EF06C
:10475000C2FB11F038F8049B1B78732B04D02D1981
:104760000E9BAF00DF191CE00E9B6F1CAD00E858DC
:1047700005A9012207F026F8069B251E9D4200D9B7
:104780001D1C2A1C0599039826F06BFD039B621BD8
:104790005819002126F082FD039B3D1C1C1903942F
:1047A0000CE0002C0AD0049B02981978A3005B420D
:1047B000FA5803AB0CF090FB013CF2E7049B013389
:1047C0000493AEE709B0F0BD492F0300E8C1020031
:1047D000F0B50E1C89B0039001CE0F1C1EF05CFFDB
:1047E0004410211C04A820F081FF069D221C281CD7
:1047F000002126F053FD039B00962A19013B3868DF
:10480000291CFFF781FF04A9024801F0B9FB09B098
:10481000F0BDC0466CD9020030B50C1C89B0051C37
:104820000222486805A906F0CDFFA06806F00AFE3E
:10483000002809DA069B0393C01805D509490A48E0
:104840001EF049FB10F0BFFF059B069A1918201CAB
:104850000C309A180090EB1E2068FFF755FF0348B4
:1048600009B030BD492F0300E8C10200CCCA0200E4
:10487000F7B5CC1CA400071C201C0E1C019224F0D0
:1048800004F8221C051C054B4760866003600C3A47
:1048900001990C3026F0E5FC281CFEBD8CCF0200EF
:1048A000F0B58BB0079310AB80CB041C01911B7843
:1048B000062A11D8012A05D93F230B700B1C01339E
:1048C000019301E0002A02D0002301990B7001231B
:1048D0009342AD4168423BE2002809DA019B01990D
:1048E000013300932D230B7080231B06C41807E0AF
:1048F00001990091002B03D00131009101990B70B7
:10490000FF21C905081C019B20400993231C8842F4
:104910001FD12023079A00991A40131C64024E22CB
:10492000CD1C002C09D100985A40492142704622E2
:10493000594053400170837007E000991A430A7090
:1049400041214B4000994B708A7000232B70019BD2
:10495000D0E1002F00DA0627551E0099019A521A5D
:10496000AD182022079911430291672903D1002F26
:1049700012D1012710E0002B1DD1029B662B0DD117
:104980007B1CAB4200DBAF1E6623039300237D1C20
:10499000049305931E1CE9E0002B0CD17B1DAB4258
:1049A00000DBAF1F029B652B00D0CDE003933A3BA9
:1049B00000250493CCE0B64A934271D8201CB54937
:1049C00015F072FA431E98410026202330300590DE
:1049D00004930396B04B211CF05815F05BFA0028A5
:1049E0000AD0049A039B944663440393AB4B201C68
:1049F000F15815F06FFE041C049B04365B10049301
:104A0000182EE7D12D230493A14B039EA34213D369
:104A1000201CA04915F048FA002804D0002E09D126
:104A20002B23049306E0201C9D4915F053FE01360C
:104A3000041C01E0FE24A405029B662B03D0672B17
:104A400024D1042E22DC6A46009B127D1A70029B40
:104A5000672B01D1731EFF187B1CAB4200DBAF1E1E
:104A6000002F00D155E12E23009A3D1C5370131CDA
:104A70000233013E0093002E6DD0002D04D0302271
:104A8000013D1A700133F4E7049565E06B1FBB42EA
:104A900000DD48E1029A672A63D0AF1F131C62E071
:104AA00000262023039604937C4B211CF05815F01C
:104AB000E7F900280AD0049A039B944663440393C1
:104AC000754B201CF15815F005FE041C049B0436A0
:104AD0005B100493182EE7D1201C7149039E15F03A
:104AE000E3F9002805D0201C6E4915F0F3FD0136CE
:104AF000041C029B662B0AD1AE420BDAF319013378
:104B0000AB421ADBAD1BAF1E17D56F1E15E0029B23
:104B1000652B05D16B1FBB4200DDEDE0AF1FEBE065
:104B2000029B672B00D00CE13B1DAB4200DB6F1FEB
:104B3000BE4200DBE7E0F343FF180023BD190493F6
:104B4000013505966633DCE00025029B049503934E
:104B500005952E1C0AE0049601235B4205936733FA
:104B6000CFE01F1C029B002503930595FB43DB1739
:104B70001F40039B652B01D17D1C06E0039B672B27
:104B800003D13D1E01D101252F1C00230693069B56
:104B9000AB4225DA201C16F04DF8009B009A013339
:104BA0000893031C30331370059B069A934207D178
:104BB000002F05D0009B009A023308932E235370D8
:104BC00016F058F8011C201C15F0B6FE344915F0FB
:104BD00081FD069B041C01330693089B0093D6E7D6
:104BE000029B009D662B02D1012E62DCA1E0201CFD
:104BF0002D4915F059F900283FD0009B013B1A7848
:104C00002E2AFBD0111C3039092902D90133019316
:104C10000AE0392A03D0013201931A7004E03022ED
:104C20001A70019A9342E9D1019B1B78302B1CD159
:104C3000019A52782E2A0BD10399662908D001993E
:104C40004B70049B0A702D2B01D1013E00E0013610
:104C5000009D01352B1C019A934204D95A1E1178EC
:104C60001970131CF7E731231370094B9C4204D8C9
:104C7000039B663B5A425341FF1A029B672B18D194
:104C8000002F16DD6B1E1A78302A0FD11D1CF9E794
:104C9000FFFF7F3FF8FF7F3FE0CF0200C8CF020059
:104CA00000002041CDCCCC3D0000A0402E2A00D1F8
:104CB0001D1C049B002B1AD02023079A0A211A409E
:104CC000131C452213432B706B461B7C301C6B70EE
:104CD00014F08AFF0A2115F06DF83031A970301CEC
:104CE0000A2115F067F82C1D3031E970251C0023CE
:104CF0002B70099BE81A2BE02B23002504930595C4
:104D00003A33039332E7672303933C3B0025049334
:104D10002BE7009B04970133009301235B4205932B
:104D20006733039303E0029B03930023059300255D
:104D30001FE7201C074915F0B7F8002800D05CE7F2
:104D4000B7E7029B002503932B230595049310E7F7
:104D50000BB0F0BD0000A040FF2310B50324DB051D
:104D6000CB18A343021C181CA24213D0042A09D05A
:104D70000021002A0ED115F073F80749002809D048
:104D8000064907E08022022012069B18A343044A2A
:104D900003439918081C10BD2CD7020070D70200DD
:104DA00000008080FF23DB0510B5041CC818032316
:104DB00086B0984304330093002302A90193102284
:104DC0006733FFF76DFD02A9201C1DF09AFF02A8B2
:104DD0002E2126F050FB00280FD102A8652126F0D5
:104DE0004AFB002809D102A86E2126F044FB0028C6
:104DF00003D1201C02491DF084FF06B010BDC0463F
:104E00007EAE030030B51D1C002385B00C1C009342
:104E1000081C111C1A1C013300F0E2FC002C21D0EC
:104E20002868124B0340062B06D0032318420DD1ED
:104E30000F4A0168914209D103A901F08FFD0023B7
:104E4000039900931A1C04F0F7FB0CE00340022BBB
:104E500009D006F05BFB03239843013B1843054B45
:104E6000C01800E0044805B030BDC046070080FF10
:104E700070DD0200000080800200808070B5051C9B
:104E800086B0101C019106F041FB041C0390681FC2
:104E9000182800D9B0E014F0F9FD0D10161B2C37BE
:104EA000686DAFAFAFAFAF0D10161B2C3768898E92
:104EB00093989D000198211C54E00198211C15F045
:104EC0003BFD01908FE00198211C15F003FCF8E7F1
:104ED000201C002114F0C4FF002805D0484949488F
:104EE0001DF0F9FF10F06FFC01A803A91EF052FCA1
:104EF00079E0201C002114F0B3FF0028EED10198C6
:104F0000211C15F0F5F9DCE7201C002114F0A8FFA6
:104F10000028E3D1211C019818F0D0FC0021051CC9
:104F2000019014F09DFF002807D0039A0023002A67
:104F300001DA80231B06019355E00021281C14F0A0
:104F400095FF431E98410124039E404204400021E6
:104F5000301C14F08BFF431E9841E4B2844242D0CF
:104F6000281C311C15F048F8ABE70198211C18F0FB
:104F700085FDA6E7201C002114F072FF0028ADD1AA
:104F800001A803A91EF006FC03220220019B1E4972
:104F9000934303435B180493039B934303435B18BE
:104FA00004A9059310F0D8FA031C26E00198211CEF
:104FB00014F05CFF12E00198211C14F06BFF0DE06F
:104FC0000198211C14F04CFF08E00198211C14F0FA
:104FD00057FF03E00198211C14F066FF0B4B0028DB
:104FE0000BD10B4B09E00323019A02209A43131CB7
:104FF000054A03439B1800E00023181C06B070BD4F
:10500000CD27030044C60200000080802CD7020098
:1050100070D7020070B5061C0D1C002811DD002998
:1050200006DD154814F0E0FD0124864213DC11E092
:10503000C020311C000614F0D7FD012485420ADB94
:1050400008E0002909DDC020000614F0CDFD012490
:10505000864200DB0024E4B20BE00024A04208D02A
:105060000548311C14F0C0FD0123854200DB231CE0
:10507000DCB2201C70BDC046FFFFFF3F031C203B7D
:105080005E2B00D93F2005235843024BA0381B68F4
:10509000181870476800002038B5051C081C6843C4
:1050A0000130401008300C1C23F0EFFB0122044BB0
:1050B00085710360037944719343037138BDC04621
:1050C000DCD2020010B5041C102023F0DEFB044BE0
:1050D000036063684360A368C3600023836010BDFE
:1050E00068D2020038B5051C202023F0CEFB0C4B03
:1050F000041C03600520011CFFF7CEFF6B68EA6803
:10510000A060236162602A7C201CA276AA689B189A
:1051100063616B7CE3761EF0F9FB201C38BDC04652
:105120002CD2020008B50379DB0705D503490448F2
:105130001DF0D1FE10F047FB08BDC0465A2F0300FA
:10514000D8C6020038B50D1C041CFFF7EBFF281C65
:1051500006F078F9011E092905D9054905481DF011
:10516000BAFE10F030FB201C1EF037FC024838BDA0
:10517000872F0300E8C10200CCCA0200F0B50C1C66
:105180000B6889B0071C181C0493FFF7CBFF6568F8
:10519000281C06F06DF81F4B984202D01E481F498C
:1051A00003E0072F05D11C481D491DF094FE10F0A7
:1051B0000AFBA06806F046F90690E06806F042F99E
:1051C0000790206906F03EF9061C606906F03AF97E
:1051D0000590002E01DB002802DA12481249E4E7AC
:1051E000062F07D0A06906F02DF9071CE06906F02C
:1051F00029F901E00020071C059B03900193281C5E
:10520000009602970499069A079B1EF096FC0748A1
:1052100009B0F0BDDCD20200D8C60200A12F030005
:10522000B42F0300E8C10200CE2F0300CCCA020055
:1052300070B5061C081C141C06F004F9051C201C83
:1052400006F000F9041C002D01DB002802DA0E48EC
:105250000E490BE0301C1EF05BFC854204DA301C6A
:105260001EF064FC844205DB074809491DF033FE4B
:1052700010F0A9FA301C291C221C1EF03CFC012352
:105280004000184370BDC046E8C10200E62F03008D
:10529000FF2F0300F8B50D1C0C68201CFFF742FF20
:1052A000686806F0CFF8071CA86806F0CBF8061C63
:1052B000002F01DB002802DA1148124907E0E868F4
:1052C00006F0C0F8051E092D05D90D480E491DF040
:1052D00002FE10F078FA201C1EF01AFC874204DA55
:1052E000201C1EF023FC864202DB05480749EEE73E
:1052F000201C391C321C2B1C1EF046FB0448F8BD38
:10530000E8C10200E62F0300872F0300FF2F0300F0
:10531000CCCA0200F7B50E1C2749041C00921DF0F0
:10532000BCFD009B002B03D1201C24491DF0B5FDC2
:105330000025234F201C391C1DF0AFFD0197301CA8
:105340001EF0F4FB854221DA0027301C1EF0E0FB42
:1053500087420CDA391C2A1C301C1EF0CCFB194B7E
:1053600019491A5C201C1DF098FD0137EDE7201C3F
:1053700016491DF092FD009B002B05D1301C1EF03C
:10538000D5FB0138854211DB0135D8E7201C019996
:105390001DF083FD009B002B03D1201C0C491DF048
:1053A0007CFD201C0B491DF078FDF7BD201C0A492F
:1053B0001DF073FDE8E7C0460F3003001630030010
:1053C0002230030024300300453203006C990300AF
:1053D000147B0300EC7403001C300300F0B51E1CAA
:1053E00000238BB00F1C0093081C111C1A1C0333E4
:1053F00000F0F6F9032F5ED8381C14F047FB020BBF
:1054000019190520011CFFF747FE041C1EF0F3FAD2
:10541000201CCDE03068674B0340062B4ED083073D
:1054200000D0C2E0644B02689A4200D0BDE045E083
:10543000306806F007F8051C706806F003F8029063
:105440000299281CFFF728FE0390022F02D11EF0BC
:10545000D2FA2EE0B06807A9012206F0B3F9002DB8
:1054600008DB029B002B05DB00266B43089A371CE8
:10547000934217D0514852491DF02DFD10F0A3F969
:10548000079B1A5D131C092A00D90923DBB2039874
:10549000321C1EF079FA0134049BE11B9C42EFD1CF
:1054A0007F190136029B9E4203D07B1904933C1C5A
:1054B000F2E703987CE043484349DDE707A901F0A0
:1054C0004DFA079B041C0593012B03D120781EF095
:1054D00030FD6DE00023221C181C1D1C059E111BB5
:1054E000B14214DA11780A2901D03A2905D19D4236
:1054F00000DA1D1C0130002307E00133202904D00D
:10550000392902D92D483149B6E70132E6E703903F
:105510000295002B05D0021C013203929D4200DA55
:10552000029302980399FFF7B7FD0026071C351C6C
:105530000494049B059A1B1B934227DA049B1B7857
:105540000A2B01D03A2B0DD1029B9D4207DA291C70
:10555000381C321C00231EF017FA0135F4E701361F
:1055600000250FE0202B04D1381C291C321C0023FD
:1055700005E0392B06D8381C291C321C303B1EF0A4
:1055800003FA0135049B01330493D2E7039B381CD3
:105590009E420DDA029B381C9D4209DA291C321CFE
:1055A00000231EF0F1F90135F4E70648084963E7E6
:1055B0000BB0F0BD070080FF70DD0200E8C1020003
:1055C00059300300D8C60200763003002F300300A4
:1055D00095300300F0B585B00191051C081C002131
:1055E00014F044FC041E05D0234924481DF073FC2C
:1055F00010F0E9F8281C1EF08BFA061C281C1EF07F
:1056000095FA011C301CFFF747FD071C281C1EF0F3
:105610007FFA84422CDA0026281C1EF079FA864292
:1056200024DA321C211C281C1EF065FA15F022FB1E
:10563000019915F04FF817F099F90022104B15F069
:10564000A9FB104B00220290039114F0D5FB092313
:10565000002804D00298039917F016F9031C321C95
:10566000381C211C1EF090F90136D5E70134CDE736
:10567000381C05B0F0BDC046AE300300E8C10200E2
:105680000000E03F00002240F0B587B00391059292
:10569000061C1EF04BFA041C301C1EF039FA019057
:1056A00003981EF043FA071EA74205D01B491C4869
:1056B0001DF011FC10F087F80198391CFFF7ECFC85
:1056C00000240290019B9C4224DA0025BD421FDA8F
:1056D000211C2A1C301C1EF00EFA211C04902A1CCE
:1056E00003981EF008FA059B002B05D0049BC318F5
:1056F000092B06DD092304E0049B1B1ADA43D217A9
:1057000013402A1C0298211C1EF03EF90135DDE7EA
:105710000134D7E7029807B0F0BDC046DA30030085
:10572000E8C10200F8B5041C081C0E1C151C05F08D
:105730009FFD164FB84226D1053C042C23D8201CCF
:1057400014F0A4F9141403210700281C05F0DEFE50
:1057500007E0281C05F0DAFE011CFE20800514F08D
:10576000C7FD011C301CFFF735FF0DE0281C05F0BC
:105770007FFDB84207D162426241301CD2B2291C7F
:10578000FFF782FF00E00020F8BDC046DCD2020037
:10579000F7B5071C0193142008AB0E1C151C1C78D0
:1057A00023F073F8044B476003606B461B798660F7
:1057B000C56003744474FEBDC8D5020038B5051C2D
:1057C0000C2023F062F8054B041C456003600520A3
:1057D000011CFFF761FCA060201C38BD34D602001C
:1057E00010B5041C02A80078002906D0002804D1B6
:1057F0000F4910481DF06FFB08E09A4208D194420F
:1058000014D00C480C49231CFCF79CF90FF0DBFF6B
:10581000944205D2121B09490648FCF793F9F5E7B3
:105820009C4203D9034806491A1CECE710BDC04648
:10583000F8300300D8C60200213103005A310300BA
:105840008C310300F0B50025171C87B00C9C0D9E11
:1058500003900491059302950195059B9D4239D0D3
:10586000039B9D4209D263689B0537D4019B049A30
:1058700001330193AB00D05819E006212368381C8E
:10588000DB0019430022FDF77FFE00280BD163687F
:10589000DB0505D5194922681948FCF753F921E0C1
:1058A000A368336012E0029B4068013302932379BE
:1058B000012B03D105F006FF307007E0022B02D167
:1058C00005F0C0FD01E0032B00D1306001350C3440
:1058D0000436C2E7019B039A934205D2084809495E
:1058E0001DF0F9FA0FF06FFF3B68029ADB089A424D
:1058F00002D203480449F3E707B0F0BDBB3103000F
:10590000D8C60200D2310300F3310300802108B56C
:10591000C905064811F0D4FCFE23FE2140029B0578
:10592000400A1843890515F007F808BDE028002053
:1059300038B50D1C05F0EAFD041C281C05F0E6FD39
:10594000211C14F0F9FF051CFFF7E0FF011C281CC7
:1059500014F0C0FE011C201C14F04EFB03239843DE
:10596000013B1843014BC01838BDC0460000808081
:1059700008B5FFF7CBFF03239843013B1843014BC6
:10598000C01808BD00008080F7B5019008680E1CA3
:1059900005F058FD019B041C1B4D012B06D100286E
:1059A00024DD281C211C11F08BFC29E0706805F017
:1059B00049FD019B071C022B06D1844216DA011B0C
:1059C000281C11F07DFC1AE0B06805F03BFD061EB6
:1059D00002DDE043C01903E0002807D0381B013086
:1059E000311C801914F000F9011E04DC07481DF079
:1059F00065FA0FF0E8FE281C11F062FC70430019F4
:105A00001DF0D4FAFEBDC046E0280020E8C1020027
:105A100038B5094C094D002802D00868A04203D1CE
:105A2000281C11F073FC05E005F038FD011C281C52
:105A300023F00FFC201C38BDCCCA0200E028002057
:105A400010B5041C05F074FE05F0FCFC011E04DC1E
:105A500007481DF033FA0FF0B6FE064811F030FC8F
:105A60001DF0A4FA0422011C201C05F077FE10BDD5
:105A700044C30200E028002038B50D1C05F0E2FC0C
:105A8000041C281C05F0DEFC844204DD06481DF0E1
:105A900015FA0FF098FE0130011B044811F010FCBC
:105AA00000191DF083FA38BDE8C10200E02800208B
:105AB00010B505F0C7FC041E1E2C01DC002804D123
:105AC00009481DF0FBF90FF07EFE80210748C9054B
:105AD00011F0F6FB202301221B1B5242DA4010403A
