:020000040000FA
:100000000040002059300100953001009730010078
:1000100000000000000000000000000000000000E0
:100020000000000000000000000000009930010006
:1000300000000000000000009B3001009D30010026
:100040009F3001004D600100212F01009F30010011
:100050009F30010000000000E16C01009F300100B2
:1000600061CF00009F300100B16801009F300100A6
:100070009F3001009F3001009F3001009F30010040
:100080009F3001001D2901009F3001009F300100B9
:100090009F3001006166010031670100A9D00000B6
:1000A000B9D000009F3001000000000000000000F7
:1000B0000000000000000000000000000000000040
:1000C00008B5054B054803331B1A062B03D9044B0F
:1000D000002B00D0984708BD10010020100100201F
:1000E000000000000648074908B5091A8910CB0F1F
:1000F0005918491003D0044B002B00D0984708BD75
:1001000010010020100100200000000010B5074C75
:100110002378002B09D1FFF7D3FF054B002B02D02A
:10012000044800E000BF0123237010BD100100202F
:10013000000000002459030008B5094B002B03D030
:100140000848094900E000BF08480368002B02D1B5
:10015000FFF7C8FF08BD064B002BF9D09847F7E71B
:1001600000000000245903001401002010010020A9
:1001700000000000144B002B00D1124B9D46402282
:1001800092029A1A924600218B460F461148124A53
:10019000121A28F02AF90D4B002B00D098470C4B6F
:1001A000002B00D098470020002104000D000B48D0
:1001B00027F0F4FF1EF0AEF92000290025F08EFD97
:1001C0001DF0F4FE000008000040002000000000C8
:1001D0000000000010010020D42F0020C5E2010023
:1001E00010B5041C0C2025F0E5FB034B44600360B4
:1001F0000223037210BDC046E48C020010B5041C3B
:10020000102025F0D7FB044B0360237A0371636849
:1002100083600023C36010BD7C8C020010B5041CF9
:10022000102025F0C7FB044B84600360034B436040
:100230000023C36010BDC046E098020023FF010008
:1002400008B5043020F0FEF9004808BDFC9A020011
:10025000F8B5041C0D1C0B7A124A9B0099581FF02C
:100260008FFF1149201C1FF08BFF281CFFF7C6FFD2
:100270000126071C381C1FF05EFE051E0CD0002E48
:1002800003D1201C09491FF07BFF201C291C0122DF
:100290000AF0BAF80026EDE7201C05491FF070FFB0
:1002A000F8BDC0463C8B020080F1020083F10200E1
:1002B00086F10200F7B50B681C4A041C0D1C934222
:1002C00003D01B495A6820F027F8201C19491FF059
:1002D00057FF002301270193281C01A91FF00CFEE2
:1002E000061E15D0002F03D1201C13491FF048FF14
:1002F0000122201C31680AF087F81049201C1FF0E9
:100300003FFF201C716801220AF07EF80027E3E716
:10031000201C0B491FF034FF2B68044A934203D082
:10032000201C08491FF02CFFF7BDC0469C8B020023
:1003300089F102008DF1020083F102009EF90200B2
:1003400001500300452D0300002806D001280BD1E1
:100350004B68DB085B00184307E007224B68034843
:10036000934302D1024800E00020704784A60200B7
:10037000C8A6020038B5151C1A1C1C1C02F0C2FDD0
:10038000002802D04368002B0ED12B1E08D1094B48
:10039000022C05D1084909481FF0DCFF12F085F84E
:1003A000012C05D1436003E0022C01D10022426000
:1003B000181C38BDFC9A02008FF10200F897020069
:1003C00030B5002585B001A9041C01951FF094FDEE
:1003D000A84205D10A490B481FF0BCFF12F065F88E
:1003E000636802A9083B6360036802934368039350
:1003F000042328C0022011F021FF05B030BDC04603
:1004000097F10200F897020073B50C1C151C1B280D
:100410000BD000231F2839D1081D111C002202F027
:1004200071FD1B4B002831D118E00323194208D17C
:100430000A6818498A4204D12B4002D129689142A6
:1004400024D0154BAA0721D1144A296891421DD105
:1004500062686B6853400722934301D00E4B15E04E
:100460000193201C01A91FF047FD061E0DD0281D79
:100470003168002202F046FD031EEFD07068596813
:100480000AF040F80028ECD1E8E7014B181C76BDD3
:1004900084A60200608B0200C8A602009C8B0200AA
:1004A000F0B51368141C012287B00F680D1C009270
:1004B000D9080223061C04F08FFD022E22D103234B
:1004C0006868034016D10268D1682C4A914211D164
:1004D0002A68904216D00593686805A91FF00CFDA4
:1004E000061E0FD0381D3168012202F00BFD736823
:1004F0004360F1E701F0DEFC0390039801F028FD72
:10050000002801D1002526E001F0D4FC051C01F0F3
:100510001FFD0290281C01F01BFD061C281C01F089
:1005200017FD029B002B03D0002E01D0002805D020
:10053000134914481FF00EFF11F0B7FF381D029940
:10054000012202F0DFFC4660D7E7A368EE0099596C
:10055000002904D1013563689D42F6D30AE00429DD
:10056000F8D0381D012202F0CDFCA3689E197368F3
:100570004360EFE7044807B0F0BDC0464106000005
:10058000B6F1020018920200FC9A020010B5041C99
:100590000C2025F00FFA034B446003600023037224
:1005A00010BDC046E48C020010B5041C0C2025F0E0
:1005B00001FA034B446003600123037210BDC0467F
:1005C000E48C020008B50430002202F09BFC0028F5
:1005D00005D1044904481FF0BDFE11F066FF4068D4
:1005E00008BDC0468FF10200F897020008B5024B23
:1005F00008C020F008F808BD9C8B0200F8B5071C65
:1006000048680E1C01F056FC041C0AF0E9F80B4D7A
:10061000022F00D9B568002800D040101FF0DFFC81
:10062000061C201C01F094FC011E05D0301D012287
:1006300002F068FC4560F4E7301CF8BDFC9A02004B
:10064000F0B5071C89B000201E1C0D1C01921FF084
:10065000C6FC0E4B041C07609F4203D104220379A1
:1006600013430371019B2B430DD03368AA00B218CA
:1006700005A80199039404931FF0D7FF681C03A9F0
:1006800005AAFFF70DFF201C09B0F0BD608B02002A
:1006900008B5002A02D11FF0E5FC11E0042A0DD1B3
:1006A0000430002202F02EFC002805D1054906483E
:1006B0001FF050FE11F0F9FE406802E01FF0C8FC88
:1006C000024808BD8FF10200F8970200FC9A020070
:1006D000014B58687047C046982E0020014B18689F
:1006E0007047C046982E0020F0B5194E87B0336889
:1006F000051C00200C1C01931FF071FC3060009061
:1007000020681FF0F1FE019B071C3360114E022D83
:1007100003D0A06809F05EFE061C211C6368083146
:10072000A81E039311F08AFD009B04900593301CD2
:1007300003AB0321002201F0C3FA074B041C9F42C4
:1007400003D0381C211C24F0FEFF201C07B0F0BD94
:10075000982E00204C9C0200FC9A0200F8B503265B
:10076000051C071C3540022D15D10E4B0340062BEE
:1007700011D0FF23DB05C418B443201C002116F060
:10078000B3FD00280BD080231B06E018B043064BB6
:100790002843C01804E0381C00F094FF00E0381C27
:1007A000F8BDC046070080FF0000808010B501F052
:1007B00081FB041C201C01F0CBFB002805D00AF0B3
:1007C00033F80028F6D1024800E0024810BDC046C8
:1007D000C8A6020084A6020010B501F06BFB041C41
:1007E000201C01F0B5FB002805D00AF01DF80028F8
:1007F000F6D0024800E0024810BDC04684A60200C0
:10080000C8A6020007B5044B0190694602200022E9
:10081000009306F013FA0EBD0604000008B509F0B7
:100820005FFE034B002800D1024B181C08BDC046D8
:1008300084A60200C8A6020037B509F0B5FE01ABD8
:100840007F2802D8187001213CE0214982098842A2
:100850000AD8402149420A431A703F221040BF3A49
:100860001043587042312DE01A49040B88420ED8CB
:10087000202149420C431C7080245F310A406442AD
:100880000840224320435A7098703C391AE01249BC
:10089000884211D81025810C6D42294319703F21DF
:1008A000703D0C400A4008402C432A4328435C70AA
:1008B0009A70D8703B3905E0084909481FF04AFD95
:1008C00011F0F3FD181C012204F08CFF3EBDC04660
:1008D000FF070000FFFF0000FFFF100007F202000B
:1008E0001892020008B5021C02490A2001F070FBB0
:1008F00008BDC046BE04000008B5021C02490A201B
:1009000001F066FB08BDC0463E050000F0B585B0AD
:1009100002900192101C0C1C00223249039302F039
:10092000F1FA0090002801D043680093029B012B4C
:1009300003D000252E1C01953CE02068002401F026
:10094000B9FA271C0290029801F002FB051E17D08D
:10095000009B2E1C002B04D0181C291C1FF0CBFD63
:10096000061C002C09D00398311C3A1C01F030FB06
:100970001D4B984201D0251C3E1C2C1C371CE2E765
:10098000221E2BD10198194902F0BCFA002801D08F
:10099000426823E0164917481FF0DCFC11F085FD82
:1009A000009B002B0AD12768002E0DD126680197E5
:1009B00001350434029B9D42F2D10EE0009821687B
:1009C0001FF099FD071CEFE70398391C019A01F00D
:1009D000FFFA054B9842EBD1E8E7321C101C05B03A
:1009E000F0BDC046D606000084A602001E05000029
:1009F00028F202001892020037B501A9051C05F083
:100A0000A9FB1E4B041C2B40062B05D0AB072AD19B
:100A10002A681B4B9A4226D1201C01991FF0F5FE33
:100A20000190012822D1207843B2002B04DB01235E
:100A300020784000184320E07F23013418403F3BDA
:100A4000184202D098435B10FAE722783F23111C2A
:100A50009943802904D18001134001341843F4E7FD
:100A60001FF0E3FC09E0019B012BE0D00549019A4E
:100A7000054800F02BFD11F018FD3EBD070080FF7A
:100A8000C8AC020041F2020008970200F0B587B03E
:100A9000141C02900391101C2349002202F032FA28
:100AA0002249051C0022201C02F02CFA0123041C00
:100AB000049305931E4F002D07D068681D4B984284
:100AC00003D004A905F046FB071C1B4D002C07D0E2
:100AD0006068184B984203D005A905F03BFB051C44
:100AE0000024029B154E9C4212D0002C07D00023FC
:100AF000301C00930193391C049A00F08DF9039A7D
:100B0000A300D158301C002209F07EFC0134E8E734
:100B10000023301C00930193291C059A00F07CF9F6
:100B2000044807B0F0BDC046EE050000F605000021
:100B300049FB0200FC9A02002DF60200C891020057
:100B40007FB50D4DA84214D0041C0C4E0122301C60
:100B5000211C09F059FC0A49301C1FF011FB042329
:100B60000293084B0394DB690748032102AA01930F
:100B70009847281C04B070BDFC9A0200C89102007E
:100B80002DF6020030B20200808D020010B5041C68
:100B900086B002A86A4610210AF084FB6846211C30
:100BA000012209F031FC02A9024804F0E5FD06B07B
:100BB00010BDC046C8AC020070B50C68031C201CF8
:100BC000E2074AD4A20703D1244A2568954244D0BB
:100BD000012B1FD9486809F0E7FC061C201C09F00E
:100BE00047FD051C301C17F09BFA011C1C481AF02D
:100BF0009BF9041C211C281C16F0C2FF19F046FEAC
:100C0000211C16F0CBFD03239843013B1843154BE1
:100C1000C01822E0201C09F02BFD061C19F036FE3E
:100C2000051C17F05DFA291C041C301C17F0DAF8BB
:100C3000FC218905051C16F051FB002801D0013468
:100C400006E0BF21281C090616F048FB002801D049
:100C500001239C43201C1FF0E8FB70BD20D0020044
:100C6000000020410000808013B5041C081C04F023
:100C7000DBFD6A46011C201C01F0A0F8009B024825
:100C8000002B00D1014816BD84A60200C8A60200B0
:100C900037B50024022800D98C6848680D6804F034
:100CA000C3FD094B011C002C00D0084B281C6A46D0
:100CB00098470098002805D00199002903D009F031
:100CC0007BFB00E0201C3EBD1D1E0000BD1D000082
:100CD00038B5051C081C141C04F0A6FD221C011CC0
:100CE000281C01F0C3F8014838BDC046FC9A020038
:100CF00008B501F007F9002804D103481FF01DFBD7
:100D000011F0D3FB08BDC046C494020030B50B1CE3
:100D100085B0141C012805D90A490B481FF01AFB9D
:100D200011F0C3FB09480121C2680192019D002214
:100D3000A84703A90390221C012009F00BF803988F
:100D400005B030BD7BF2020008970200F0B002004F
:100D5000F8B50E1C002803D12A4B041C1D6823E0A3
:100D6000086883070AD10368274A934203D121F018
:100D70002DFB051C0EE0254A934201D009F02AFB09
:100D8000856B002D06D02A68214BD31A5942594150
:100D90004B421D40306809F01DFB1E4BC268002409
:100DA0009A4201D1346804340020011C21F0E1FA98
:100DB0000027061CBD4209D10025AC4216D11FE018
:100DC000EA68FB009958002904D10137AB689F42BB
:100DD000F6D3F1E70429F8D0301C08F057FFF4E708
:100DE000A268EB009958002904D1013563689D423F
:100DF000F6D305E00429F8D0301C08F047FFF4E7EB
:100E0000301CF8BD982E002030B202004C9C02002D
:100E10009C8B0200DD390000F0B587B0039205918C
:100E20000D9A0399051C541A0CAA12782021101C43
:100E3000884305D0302A05D00CAA0292012204E092
:100E4000224A00E0224A02921022019280221A4095
:100E500005D0E30F1B195B10E71A1C1C03E00121EE
:100E60000B4012D11F1C002C12DD261C019B049686
:100E70009E4200DD04936B6828680299049A9847A3
:100E8000049BF61A002EF1DC03E0271C141C00E082
:100E90000024039B002B06D01A1C28686B68059958
:100EA0009847039BE418002F0DDDE419019B3E1EBB
:100EB0009E4200DD1E1C28680299321C6B68984710
:100EC000BF1B002FF2DC201C07B0F0BDC9F20200EE
:100ED000B8F20200F0B593B01F1C18AB10CB059010
:100EE0001B780D1C161C0793CB070BD48B0703D163
:100EF000814B0A689A4205D0281C09F055FB012550
:100F00004000054381231C4209D1079B302B06D1A9
:100F10001A9B1B9A934200DA1A9200231B93281CF7
:100F20001FF060FA0AAA131C00280DDDA30703D5E1
:100F30002B231370123B05E0131C620704D52022FB
:100F40001A70192304AA9B18E20618D5022E03D1A1
:100F500030221A707A1C10E0082E08D130221A7044
:100F6000A20501D401330AE03A1C0E3205E0102E2E
:100F700005D130221A703A1C17325A7002330022FF
:100F80000AA91A705B1A0693A30600D52C320EAB81
:100F90000B9310230C9300231B990D93012901DD62
:100FA00040210C4304A9CB75FBB20096610614D511
:100FB00000210293019103922B1C0BA80CA90DAAEE
:100FC0000FF098F90378061C2D2B15D104AAD375C0
:100FD0000D9B0136013B0D930EE00AA9019102938E
:100FE00003922B1C0BA80CA90DAA0FF083F91B9BD5
:100FF000061C012B4BDC02E01B9B012B6ADC00274B
:101000003D1C630621D5172104ABC9180B78002BB2
:101010000AD000230122009301920598FFF7FCFEFD
:101020001A9B2D18013B1A93069B002B0DD0002311
:101030000122009301920598069A0AA9FFF7ECFE97
:101040001A9B069A2D189B1A1A931B9B012B00DDE5
:101050001A93079B059800931A9B311C01930D9AD4
:10106000231CFFF7D9FE2D18002F09D020230022C2
:101070000093019705982149131CFFF7CDFE2D1809
:101080000B980EAB984234D024F0BBFC31E00D9AA3
:101090001B9B93421CDB1A9A934206DA0127D51A4E
:1010A000274004D02F1C002501E000273D1C012310
:1010B0009C43002D09D000221F3300930195059811
:1010C0000E49131CFFF7A8FE051C3023079398E771
:1010D000131CE0E70D9A1B9B934200DA131C1722A6
:1010E00004A952181278511E8A419B18069A9B181F
:1010F000D1E7281C13B0F0BD20D00200C3F50200D8
:10110000F0B5071C00248DB005920D1C2B78002B28
:1011100009D18D420BD96E1A3868321C7B6898470A
:10112000A419291C03E0252BF3D00135EEE70B7839
:10113000002B00D134E120230026013109930B78E4
:10114000002B12D02D2B01D12C3B02E02B2B02D1F6
:10115000293B1E430FE0202B01D11C3BF9E7212B3B
:1011600001D1193BF5E7302B02D00023069304E0B0
:101170004022099316430131E1E70B781A1C303AFB
:10118000092A07D80A22069801314243D318303B76
:101190000693F2E708912E2B27D14B782A2B05D006
:1011A0000B1C01330893002307930CE0089B0233C8
:1011B0000893059B1D1D1B680793DB43079ADB17EC
:1011C0001A40079215E0089B1B781A1C303A092A2E
:1011D00009D80A2207994A43D318303B0793089B42
:1011E00001330893EFE7059D03E00123059D5B4272
:1011F0000793089B1B786C3B59425941089B5B182D
:1012000008931B780493002B00D1C9E0642B00D114
:1012100087E013D8502B00D191E004D8453B022B36
:1012200000D89CE0B2E0049B622B1AD032D8582B35
:1012300000D0ABE02B1D0593412383E0049B712B71
:1012400034D005D8672B00D889E0702B77D09DE08B
:10125000049B752B58D0782B71D0732B00D095E060
:1012600036E02B1D05932B68002B07D0099B381CFB
:101270000093069B4C490193042206E0381C05228A
:10128000099B4A490093069B0193331CFFF7C4FD59
:10129000241882E02B1D05932B680BA90B70099B6A
:1012A000381C0093069B01220193EEE72B1D0BA92E
:1012B0002868059323F014FD079B011C013301D11D
:1012C0000B9B0793099B381C0093069B019311E02D
:1012D0002B1D2D680593002D0ED0079B013303D1E4
:1012E000281C27F087F90790381C291C099B0093BC
:1012F000069B0193079AC8E7099B381C0093069B3D
:101300002B4901930622C0E72B1D0593612300930F
:10131000099B01960293069B381C039329680022BF
:101320000BE02B1D05936123381C01220093099BC0
:1013300001960293069B039329680A230CE02B1D58
:10134000059361230093099B381C0293069B00229E
:1013500003931023019629681EF020FF98E70723C6
:1013600007359D432B1C286869680833059318F0DE
:10137000A7FD099B011C0093069B381C0193079B4A
:10138000049A0293331C1EF078FF81E738680899AD
:1013900001227B6898470134059508990131B4E62C
:1013A000201C0DB0F0BDC046A6F20200ABF2020058
:1013B000B1F20200F7B51F1C0023061C0093081CA5
:1013C0000D1C111C1A1C0B4B03F006FE102024F000
:1013D000FEFA041E04D1084A084B094CDA6104E005
:1013E000281C391C10F02AFFE06000232660201C16
:1013F000A360FEBDFFFF00002CE20200982E00203B
:10140000A82E002010B5013810C910F017FFE060B9
:10141000004810BDFC9A0200F8B57F23171C151C6C
:10142000041C0E1C1F409A430AD17B1E012B07D8B7
:101430000B68586823F04FFC011C201C1EF0A0FE16
:10144000022F04D1201C0F491EF09AFE01E0002F4C
:1014500012D1F368002B02D05A68002A04D1201C54
:1014600009491EF08DFE0CE0012A05D1201C996867
:10147000002208F0C9FF04E0201CF1682A1C10F0CB
:1014800071FEF8BD9EF90200C3F50200C36803486F
:101490005A68002A00D098687047C046FC9A02003B
:1014A000136810B5002B0ED17D2902D1C3681360DB
:1014B00009E0054B04689C4205D1BA2903D1141CEC
:1014C000FFF7E4FF206010BDC49402000EB470B5B5
:1014D000051C87B0102024F07AFA041E06D11B4B9D
:1014E0001B4A1D619861DA611A4C29E000210560F0
:1014F0008160012010F0A2FE0B9B051CE060002B18
:101500001ED0181C252127F05DF8061E08D10B9867
:1015100027F070F8321C011C0B9804F063F90EE000
:1015200002A8102121F061FA0CAA02A80B990192DD
:1015300009F018FF084802A9E56804F01DF9A86041
:10154000201C07B070BC08BC03B01847982E0020C0
:101550002CE20200A82E0020C8AC020008B5031C33
:10156000820708D1064A0168914204D1054AD96828
:101570000120914203D0181C034902F0EFFB08BD83
:101580004C9C0200B51300008495020010B5041CA9
:1015900008F020FF034BC2689A4200D02469002360
:1015A000A36010BDB5130000F7B5161C0193041C11
:1015B0000F1C08F00FFF174BC2689A4200D0246935
:1015C000A568002D09D10C2024F001FAA0600028A4
:1015D0001ED00323E580A38010E0E388A1880233B6
:1015E0008B420BDB03318900281C012224F005FA11
:1015F00000280DD0A388A0600333A380E288A168EF
:1016000093000332E280019ACB181F605E609A60FB
:10161000F7BDC046B513000070B5151C041C0E1CA8
:1016200008F0D8FE064BC2689A4200D02469A3682D
:10163000002B01D1336001E0E28832602B6070BD85
:10164000B513000010B5102024F0B4F9041C034BAE
:1016500008C022F0ABFD201C10BDC04620D0020007
:1016600038B5052827D80D1C15F04EFC05250D03AF
:10167000141C081C20E0081D22F0C4FE031E0F48A5
:101680001AD00F4818E0081D23F0DBF901214000B3
:10169000084311E0FFF7D6FF291D041C043022F097
:1016A000E7FE06E0FFF7CEFF291D041C043022F000
:1016B000EFFE201C00E0002038BDC04684A60200DA
:1016C000C8A6020038B5051C83070CD1104B026870
:1016D0009A4208D1FFF7B6FF041C291D043022F0FE
:1016E000BCFE201C12E0281C08F05EFFC0231B0675
:1016F000984205D180200021C0051EF087FE05E03C
:10170000C317C018584001234000184338BDC046D5
:1017100020D0020038B5051C19F02AF8012802D1A2
:101720000F48104903E0002805D10F480F49FFF783
:10173000CDFE10F0BAFE281C23F0E1FC002806D1F3
:10174000281C16F0CDFC01244000204307E0FFF7E1
:1017500079FF041C291C043022F0A7FD201C38BD91
:1017600044970200DAF2020018920200F3F202003B
:1017700007B5C30701D540100DE0043001A90CF0F6
:1017800019FE002801D0019805E0034903481EF026
:10179000E1FD10F08AFE0EBD0CF30200449702003A
:1017A000F0B58DB00190012008400D1C171C041EDF
:1017B00007D04B1003A802A9022222F036FD03AE87
:1017C00008E003230B4065D19A4A0968914200D092
:1017D00025E12E1DFB0707D57B1003A802A90222D5
:1017E00022F023FD03AD1AE003231F4205D1914AE5
:1017F0003968914201D13D1D11E03B40022B00D0E0
:1018000011E18D4B3B40062B00D10CE1301C23F045
:101810006BF93A1C011C019802F0C6FF08E1019B1C
:10182000092B01D0162B16D1281C22F0EBFD002825
:101830003DD1301C23F058F9041C281C23F054F926
:10184000011C201C15F0AAFF0323022498437B4BA4
:101850000443E018ECE0019B182B00D9BAE0FFF735
:10186000F1FE041C019815F04FFB6A706476760D4A
:1018700010171DDC478E946A706476760D10171D64
:10188000DC478E00201D311C4FE0201D311C2A1C1E
:1018900022F0D0FE201CCBE0201D311C2A1C23F09E
:1018A0000AF8F7E7281C22F0ADFD002802D06448B2
:1018B000644957E006A8271D22F078FC321C2B1C37
:1018C000381C06A90CF020FC2A7833785340DB073B
:1018D0000ED506A822F096FD002809D1012109A8FD
:1018E000494222F098FC381C391C09AA22F067FEF4
:1018F00006A822F067FCCDE7281C22F083FD002813
:10190000D5D109A8271D22F051FC321C2B1C09A897
:10191000391C0CF0F9FB09A822F054FC2A78337822
:101920005340DB07B6D5381C391C2A1C22F047FE71
:10193000B0E7201D311C2A1C22F0C4FEAAE7201D9E
:10194000311C2A1C22F03EFFA4E7201D311C2A1C5A
:101950000CF066FB9EE7381CFFF70AFF021E05DA53
:1019600039483A491EF0F6FC10F09FFD019B201DFE
:10197000311C032B01D0102B02D10CF0E5FA89E7C2
:1019800022F0BDFD86E7201D311C2A1C23F016F82D
:1019900080E7281C22F036FD002888D1FFF752FE90
:1019A000271D0190321C2B1C0430391C0CF0ACFBA1
:1019B0002A7833785340DB0704D5381C391C2A1C9D
:1019C00022F0FDFD019B09A9022009930A9410F061
:1019D00035FC2DE0301C291C22F019FD019A031C56
:1019E000193A0020042A23D8101C15F08DFA030799
:1019F000130B0F001648002B1ADA0EE01448002BC8
:101A00000BDC15E01248002B12DC06E01048002B1E
:101A100003DA0DE00E48002B0AD10E4808E0181C2E
:101A200006E0002004E00198291C3A1C0EF02AFD73
:101A30000DB0F0BD20D00200070080FF00008080C4
:101A40007496020039F30200189202004AF3020071
:101A5000C8A6020084A602000D4B73B530CB161C3D
:101A6000012804D94D682C1C022800D08C68086815
:101A700001A904F06FFB011C2C20019A0023FF3008
:101A800005F0EEFE311C2A1C231C00F077FF76BD0A
:101A9000982E002070B50CF013FD0B4C0026231C73
:101AA0008C331E60266308F0E3FB084D0121281CDF
:101AB000FEF79CFD281C6E215E221EF0C9FA6560AF
:101AC0002560666470BDC046982E0020CC2E002094
:101AD00070B50624134EC3001C4373680022051C16
:101AE000211C181D01F00EFA021E18D1706C00287E
:101AF00007D00430211C01F005FA002801D040680D
:101B00000EE000220848211C01F0FCF9021E06D15B
:101B100006492A1C0648FFF7D9FC10F0C6FC50689D
:101B200070BDC046982E00205C9102005FF3020059
:101B3000049402000A4B10B5041C18685B689842B4
:101B40000AD00621E30004301943002201F0DAF93B
:101B5000002801D0406802E0201CFFF7B9FF10BD4B
:101B6000982E002008B5074B586C002801D1064874
:101B700007E004302621002201F0C4F90028F6D045
:101B8000406808BD982E0020888E02000A1C06219D
:101B900008B5034BC000014318681EF059FA08BD90
:101BA000982E0020062108B5034BC0000143186899
:101BB0001EF058FA08BDC046982E00200A1C0621C7
:101BC00008B5034BC000014358681EF041FA08BD38
:101BD000982E0020062108B5034BC0000143586829
:101BE0001EF040FA08BDC046982E002038B5051CEE
:101BF0000C1C062806D1081C08F016FE00284CD044
:101C000028484DE00123194217D04810042D06D072
:101C1000052D0FD0002D42D10028F1D03DE0C0228B
:101C20001206904204D18020C0051EF0FEFB37E072
:101C3000404200E0C043400013E0022813D11A4B99
:101C40000B40062B08D08B070DD10B689A69174BF8
:101C50009A4208D1486802E0C80823F032F801230C
:101C6000400018431CE0201C08F0B4FB4369002B23
:101C70000DD10F4BAD00201CED5820F0EFFB0D49AE
:101C8000031C2A1C0C48FFF721FC10F00EFC281C3A
:101C9000211C9847002803D1EBE7084800E0081C06
:101CA00038BDC046C8A60200070080FF35670000A7
:101CB000D09D020078F302000897020084A602007B
:101CC000F8B5041C1D1C0F1C161C08F083FB0369CF
:101CD000201C9C46002B08D120F0C0FB0549021CAB
:101CE0000548FFF7F3FB10F0E0FB391C321C2B1CFE
:101CF000E047F8BD96F3020008970200F8B5061C0D
:101D00000D1C171C1C1C00290BD0186808F062FB66
:101D10007368984205D0064906481EF01BFB10F078
:101D2000C4FBB068291C3A1C231CFFF7C9FFF8BD8F
:101D3000B2F3020008970200F8B5061C0F1C141C31
:101D40001D1C930714D11368174A934202D163688C
:101D50002B6028E0154A934207D1002802D008F0F2
:101D600039FB071C636888C51DE0114A934201D105
:101D70002C6018E05B681A1CF23A012A01D9F02B9A
:101D8000F6D1002E0ED1201C08F024FB094B9842FE
:101D900008D10C2023F00EFE074B476003608460DF
:101DA000286000E050C5F8BD889D02004C9D0200EF
:101DB0004C9C0200FCD5020098980200F8B5002364
:101DC00013605360071C0C1C151C08F003FB061C59
:101DD000102C05D1836A002B02D00F4B88C519E067
:101DE000F369002B04D0381C211C2A1C984711E0F1
:101DF000B06B00280ED00621E4001A1C04302143E9
:101E000001F080F8031E05D05A68381C311C2B1CC9
:101E1000FFF792FFF8BDC0464C91020070B5161C4A
:101E2000041C0D1CFFF7CAFF3368002B15D10B4EA5
:101E3000A30707D10A4B22689A4203D1301C0949F3
:101E4000626805E0201C20F009FB021C301C0649DA
:101E50002B1CFFF73BFB10F028FB70BD3C950200EC
:101E60004C9C0200CAF30200F1F3020073B5041C9B
:101E70000D1C161C08F0AEFAC369002B09D0042211
:101E800001960092201C291C6A469847009B002B53
:101E90000AD0201C20F0E2FA0449021C2B1C044842
:101EA000FFF714FB10F001FB73BDC046F1F3020015
:101EB0003C95020013B5041C08F08CFA436A002B11
:101EC0000BD1201C1A216A46FFF778FF009B002BDC
:101ED00008D068460FF05AFA0EE0201C98470028F8
:101EE0000AD1EEE7201C20F0B9FA0449021C04488C
:101EF000FFF7ECFA10F0D9FA16BDC04613F4020051
:101F00000897020037B5041C08F064FA856A201CA3
:101F1000002D01D0A84716E010216A46FFF74EFFBA
:101F2000009B002B05D0281C291C6A461EF0EBFAEA
:101F300009E0201C20F092FA0349021C0348FFF735
:101F4000C5FA10F0B2FA3EBD2FF402000897020065
:101F500030B5051C8FB007F059FE281C08F03AFA7E
:101F6000846A281C002C01D0A04728E010216A4672
:101F7000FFF724FF009B002B17D002A810F07AFA7D
:101F8000011E07D16A461EF0BEFA041C10F088FA42
:101F9000201C14E0039B0B49186801F0DFFE031CB2
:101FA000201C002B0BD1039807E0281C20F056FAC8
:101FB0000549021C0548FFF789FA10F076FA0FB0C0
:101FC00030BDC046C49402002FF4020008970200FE
:101FD000F0B585B002900E1C171C202802D191424A
:101FE00014D1A1E1029B1B2B01D01E2B10D1301C60
:101FF000391C08F087FA002803D0029B1B2B05D15F
:1020000092E1029BBA481B2B00D099E1B94897E1B5
:10201000029B212B2AD1101CFFF7A0FA002807D021
:10202000301C391C1EF0A0F9002800D07CE1EDE73F
:1020300003243C4000D042E1AF4B3A689A4200D0C2
:102040003DE17B689C42E1D2A300FB189D68281CFF
:10205000FFF784FA002800D130E1301C291C1EF063
:1020600083F9002800D05FE10134EAE70123194237
:1020700000D1EAE04D101A4200D1DEE0029B54107C
:102080001D2B00D91BE1181C14F052FF1E0020006C
:102090002300260038003F00410043004E00560058
:1020A0006B007400A3001E002000230026003800EF
:1020B0003F00410043004E0056006B007400BC001E
:1020C000C0001901C400C800254300E065402E1C73
:1020D000A8E02C40261CA5E0002C02DA874888499D
:1020E00002E11F2C6FDC874B23419D426BDCC02338
:1020F0001B0623419D4266DBA540E8E7002CEDDB93
:102100001F2C00DD1F242541E1E72E198AE02E1B3C
:1021100088E0281C211C02F013FC002853D1012068
:102120006C43640020430BE1002C00D1DAE0281C52
:10213000211C1EF0F1FD1BE0002C00D1D2E0281C78
:1021400015F0EEFF051C201C15F0EAFF011C281CF1
:1021500015F024FB0323022598436B4B2843C0183A
:10216000EEE0002C00D1BDE0281C211C1EF0C4FDB7
:10217000061C57E0002C02DB0395012617E0281C03
:1021800015F0CEFF0323022698435F4B0643F61853
:1021900089E0E3070ED4012C44D003986410011C9D
:1021A00002F0CEFB00280ED1039B5B430393002C6F
:1021B000EFD137E0301C039902F0C2FB002802D1B6
:1021C000039B5E43E7E7E917281C1EF01FF9061C76
:1021D00069E0002C00D185E00021022010F02EF8EB
:1021E000211C061C281C1EF097FD012740003843C7
:1021F000B060211C281C1EF07FFDB8403843F06001
:10220000301C9DE0A54200DB00E78DE0A54200DC2C
:10221000FCE689E0A54200DDF8E685E0A54200DAAB
:10222000F4E681E073001A1C724002D401201843C6
:1022300086E0301C1EF0F9F882E003231340022BE5
:1022400003D1324B1340062B70D1029B1F2B2AD196
:10225000381C08F0BFF88369051C002B07D16B6A96
:10226000002B16D0381CFFF725FE041C0BE002984B
:10227000391C321C9847002862D1F0E7311C08F065
:1022800041F9002850D1201CFFF762FE0028F5D14B
:10229000BCE6381C20F0E2F81D49021C1D48FFF77F
:1022A00015F910F002F9301C08F094F88369002B3E
:1022B00005D00298311C3A1C98473FE02F1C029B26
:1022C000301C9A00144BD55820F0C8F8041C381C58
:1022D00020F0C4F8114900902A1C231C0D48FFF778
:1022E000F5F8DEE70E480F491EF034F8D9E7C0468E
:1022F00084A60200C8A60200F0E1020018920200C3
:102300004AF30200FFFFFF3F00008080070080FFCC
:1023100013F4020008970200889C02004EF40200A9
:102320007496020039F30200064809E0281C15F0F3
:10233000F7FE3A1C011C029802F036FA0028BED0C3
:1023400005B0F0BD84A60200F0B513688DB0069309
:10235000002803D1131D0393041C03E0131C5468CD
:1023600008330393FF220B1C13400193090A114009
:10237000019A4B0005939B18039A9B00D558D318DC
:102380005F680491381E09D00020BB0706D17F4B3F
:102390003A689A4202D1381C1DF057FE049BC618B9
:1023A000002D16D1019B760001339B1998000093F4
:1023B00023F000FB251C061C002C01D00125046025
:1023C000019BA8009A003018039925F0F1FF019BAA
:1023D00030E0AB0731D12B686D4A934202D06D4A91
:1023E00093422AD1281C09A90AAA08F07FF9099B5F
:1023F000019A01339B1876009B199800009323F0F3
:10240000D9FA251C061C002C01D001250460019B73
:10241000A8009A000399301825F0CAFF019B0A9979
:10242000E818099B80009A00301825F0C1FF019B35
:10243000099A9B185B19029338E0019B7600181DDE
:1024400083199800009323F0B5FA0294061C002C1F
:1024500002D0012304600293029B03999800019B20
:1024600030189A0025F0A4FF019A029B9446281C7C
:1024700063440293FFF71EFD029B07909C000798A0
:10248000FFF766FD051E11D0029B009A934207D309
:10249000301CD10023F0A4FA061C009B5B000093C3
:1024A000029B3551013302930434E8E7029B980004
:1024B000049B3018DA00019B9900039B591825F002
:1024C00077FF029A059B944663441C1C002F4ED054
:1024D0000325381C3D4019D12C4B3A689A4215D13E
:1024E0001DF0C9FD41688D4241D08368EA009F58C4
:1024F000002F09D0042F07D0A300F7508768F318E6
:10250000BA18526802345A600135ECE7C5210AAAAC
:10251000FFF784FC00200AAA011C1DF0F4FFFFF75E
:10252000C9FCA50001900198FFF712FD071E1ED0FF
:10253000009A631C93420BD353000093032B01D8E2
:1025400004230093009B301C990023F049FA061CD9
:1025500009AA381C022108F0EBF8099B02341B6819
:102560007351099B5A6873195A600835DBE7029B5F
:102570000698E21A191C5208331CFFF7A1FB041C31
:10258000301C23F03EFA201C0DB0F0BD9C8B0200E5
:10259000F0E10200F0B0020073B50C1C161C8307BA
:1025A0001FD10368224A934207D0224A934218D18E
:1025B000694601AA1FF0F5FE03E0694601AA23F06F
:1025C0000FFB009BA34227D32AD80023019DA00024
:1025D000A3422CD09900421A043AAA5801337250EF
:1025E000F6E7FFF767FC0023051C0093009B281CFF
:1025F000A3420CD2FFF7ACFC00280DD0009A0E4984
:10260000A31A5B189B00013298510092EEE7FFF786
:102610009FFC00280BD003E008480949009A02E01B
:10262000221C06480749FEF751FF0FF03EFF73BD1D
:10263000F0E10200F0B00200FFFFFF3F189202003D
:1026400073F4020096F40200F7B5141C0A0AFF2383
:102650000E1C151C1E401D4083073CD107683E4BD5
:102660009F4203D03D4B9F4235D104E0694601AA09
:1026700023F0B6FA09E0FF231143194201D120608B
:1026800068E0694601AA1FF08CFE009BAA199342DC
:1026900059D39A009446002001998200A84206D09E
:1026A0006746BF1A043FCF590130A750F5E79B1B7F
:1026B000B500181A4919A4181FF05BFE019B206091
:1026C0005D19002301360133B34243D09A005142D1
:1026D0006958A150F7E7FFF7EDFB0023071C0093B3
:1026E000009BB3420CD2381CFFF732FC00282AD0E2
:1026F000009AB31A5B199B00013218510092EFE760
:102700000020011C1FF035FE061C381CFFF720FCC2
:10271000011E03D0301C07F0B9FAF6E7B168A942F0
:1027200011D3AB00E3181E6088009C4206D0C21A89
:10273000F768A218D259043B1A60F6E7491B301C0F
:102740001FF034FE06E00649009A0648FEF7BEFE7A
:102750000FF0ABFEF7BDC046F0E10200F0B00200A2
:1027600073F4020018920200F0B587B01D1C061C1D
:102770000C1C019207F02EFE2F4B984206D1301C04
:10278000211C019A2B1C0AF08DFD53E0876A2B4B0C
:10279000002F07D09C4220D1301CB8472860002869
:1027A00016D147E09C4218D1301C102103AAFFF734
:1027B00005FB039B002B0DD1301CCD2103AAFFF795
:1027C0002DFB01200021059403AA1DF09CFE28602A
:1027D00001202FE0381C391CF6E7002CECD1019BBE
:1027E000201C002B26D0181C07F0F4FD144901F022
:1027F000B5FA00280FD0301CCC2103AAFFF7DEFA6F
:10280000039B002B07D0201C211C03AA1DF07BFE7C
:102810002860201C0EE0301CCE2103AAFFF7CEFA60
:10282000039B002B03D00120002101AACDE7022049
:10283000019B2B6007B0F0BD74BA0200FC9A020045
:10284000BC97020010B5041CFEF788FE002806D0D5
:102850000021201C0A1C0B1CFFF732FA0AE0201C86
:102860001DF07CFD031C201C002B03D102480349F2
:102870001DF070FD10BDC04608970200BEF40200B6
:102880007FB50623C0001843054B01900491052035
:1028900001A902930393059204F038FE07B000BD2E
:1028A000FC9A02000C23F0B58BB000AFFA18051C9F
:1028B0000C1CFFF783FA3B69002B06D02B49221C26
:1028C0002B48FEF703FE0FF0F0FDF86800284AD110
:1028D000281C1FF02BFB0028F0D00C23281CFA1812
:1028E0000D21FFF76BFA0823F868F91803F032FCA2
:1028F0003860201CBD6822F0E9F96A4601352B18C2
:102900007B600E33DB08DB00D31A9D46BD68396857
:102910002A1C684625F04CFD6E462E23201C73555C
:1029200022F0D9F93860201C22F0D0F90135751950
:10293000021C3968281C25F03BFD796868460BF0BD
:10294000FFFD0623C00018430A4B0822BB61FB6150
:10295000094BBA183B6201237B620B337861D118B3
:10296000052004F0D3FDBD460BB0F0BDE8F4020035
:10297000C0950200FC9A020084A60200F0B5174C34
:102980000F1C616895B003912168061C08A804918A
:10299000626023600FF06EFD051E06D0039B099850
:1029A0006360049B23600FF080FD336805A8311C31
:1029B0003A1C01930EF0EAF92A1C2B1C019905A878
:1029C0000AF0CCF81DF090FD051C0FF069FD281CE5
:1029D000039B6360049B236015B0F0BD982E00201C
:1029E00010B5041C0CF046FA031E064803D0064935
:1029F0001DF0B0FC03E00549221CFEF767FD0FF057
:102A000054FDC04698920200FEF4020027F5020031
:102A1000011C08B502481DF09DFC0FF046FDC046A4
:102A2000B09602000022024B0248FE339A8570479E
:102A3000982E0020FC9A02000122024B0248FE332D
:102A40009A857047982E0020FC9A0200034B044898
:102A5000FE339B8D002B00D102487047982E00203A
:102A600084A60200C8A6020008B504F029FB0148AC
:102A700008BDC046FC9A020008B50368186B002820
:102A80000ED0CB0702D50368002B09D08B0702D5E7
:102A90004368002B04D04B0708D58368002B05D171
:102AA000034904481DF056FC0FF0FFFC08BDC0466A
:102AB00055F50200C8930200F0B5012189B00190DC
:102AC000FFF7DAFF8021061C490004A81FF08DFFE4
:102AD00080240023069D6400009303AB0198291C09
:102AE000221C3768B847431C0ED103990B2904D127
:102AF000009B1848002B21D12AE0012349001943EB
:102B000015481DF020FC14E0002817D0009B1B186E
:102B10000093A04202D2241A2D18DEE7802104A8D7
:102B200049001FF0B1FF051E05D10B480B49FEF708
:102B3000CDFC0FF0BAFC80246400CEE7009B08486F
:102B40000593337BDB0700D4064804A902F014FE8A
:102B500009B0F0BDFC9A0200C893020074F50200AF
:102B6000C8AC0200C4A80200F0B589B00091041CF2
:102B700008680121FFF780FF071C012C04D1009B8E
:102B80001868FFF799FF98E0009B586807F00CFD64
:102B9000051C431CF3D001243B7B23426DD0041C55
:102BA000291C04A81FF021FF00230193002C62D0F0
:102BB000211C04A81FF081FF011E04D14049414897
:102BC000FEF784FC1FE0009B3E681868221C03ABE4
:102BD000B047031C061C013317D1211C04A81FF0A9
:102BE000D9FF03990B2908D1059B0093002B42D1F3
:102BF00004A81FF024FF34485FE001234900194373
:102C000032481DF0A0FB0FF050FCA04202D3069901
:102C1000059C14E0211A04A81FF0BCFF002EF6D179
:102C200029E0101C1E3398431D3BC0280ED1019A89
:102C30009B18A3421BD8013DA34216D20193019BCE
:102C4000CA5C012350B20028F1DAEAE7101C0D3308
:102C500098430C3BE028EAD004339A43131CF03B22
:102C60005A425A4105239B1AE1E72C1C9DE7013B80
:102C70005B191C1B9AE716481CE0291C04A81FF0CE
:102C8000CBFE009B2A1C1868069903AB3D68A84739
:102C9000431C09D104A81FF0D2FE03990A480B294E
:102CA0000BD049002143ABE73B7B0590084823420A
:102CB00000D1084804A902F05FFD09B0F0BDC0468C
:102CC00082F5020098920200FC9A0200C89302006A
:102CD000C8AC0200C4A802007FB50C1C061C086822
:102CE0000121FFF7C9FE0222051C01A9606807F057
:102CF0001BFE029A022E07D9A06807F055FC029B22
:102D0000021E9A4200D91A1C6B462D682068019950
:102D1000A847431C0BD1009907480B290AD001236F
:102D20004900194305481DF00EFB0FF0BEFB0123BF
:102D30004000184304B070BDFC9A0200C893020022
:102D4000F0B589B00191041C08680121FFF794FED9
:102D5000061C04A8012C08D9019B5B685C10631C4D
:102D600003D0211C1FF041FE13E0012410211FF0AD
:102D70003CFE64420DE0019B391C1868012203AB44
:102D80003568A847431C11D0002823D03B780A2B74
:102D90002AD0631C23D104A801211FF08EFE071E38
:102DA000E9D116491648FEF791FB11E003990B296A
:102DB00008D1059B0193012B0CD104A81FF03FFE05
:102DC000104819E00123490019430F481DF0BBFAD0
:102DD0000FF06BFB04A801211FF0DCFE04E0631E72
:102DE000002C01D01C1CD6E7337B0848DB0700D43D
:102DF000074804A902F0C0FC09B0F0BD82F502004A
:102E000098920200FC9A0200C8930200C8AC02002B
:102E1000C4A80200F7B50F1C0221041C161CFFF702
:102E20002BFE01AB4568391C201C321CA847431CF3
:102E30000BD1019907480B290AD0012349001943F6
:102E400005481DF080FA0FF030FB012340001843C5
:102E5000FEBDC046FC9A0200C893020013B5041CD4
:102E6000A068FFF775F8019000280ED06368074A44
:102E7000934205D0181C0121002201ABFEF720FF70
:102E800007F0D2FC0028EBD0019816BDFC9A020096
:102E900070B5041C0D1C10491DF072F96968201CE6
:102EA000012207F0B1FA0D4E201C311C1DF068F90B
:102EB000A968201C012207F0A7FA311C201C1DF074
:102EC0005FF9E968201C012207F09EFA201C0449E2
:102ED0001DF056F970BDC04690F5020083F1020066
:102EE000452D030070B5061C10200D1C141C22F08B
:102EF00061FD034B466085600360C46070BDC046E1
:102F0000649A0200F0B5067887B0B30702D5002AAC
:102F100000D0F2E0F307DB0FDBB20293002B0ED000
:102F2000774B0B40062B0AD003230B4003D1754C83
:102F30000D68A54202D0012A01D0DEE00293019281
:102F40000D1C041C730749D503688768DE08F6006A
:102F5000BE19B74211D23868A84204D1019B022B96
:102F600000D0A1E09EE0029B002B04D1291C07F0B9
:102F7000C9FA0028F2D10837EBE7019B012B00D0FA
:102F8000BBE02368D9086368994210D104316160BD
:102F9000A068C90022F024FD23686268DB08D21A09
:102FA000DB00A060D200C018002125F01EFA072225
:102FB0002068C308591CC90002400A432260A26865
:102FC000DB004F49D3181D60181C0D40062D00D1A1
:102FD00094E0012122788A4322708FE04368002B1D
:102FE00005D1019B012B00D087E000F08DF8444B08
:102FF0002B400493062B04D1E80821F062FE0390D5
:1030000005E00220291CFEF7F1FD4310039303980D
:10301000616814F01DF8002600910591009BDF0007
:10302000A368DF19386800281AD1019B311C012BD5
:1030300063D12068C3080133DA0007230340134338
:103040002360002E00D1391C00234B60049B0D60CF
:10305000081C062B52D001222378934323704DE0A5
:10306000042803D1002E21D13E1C1FE0A84203D129
:10307000019B022B18D108E0029B002B16D1291CC2
:1030800007F040FA002811D0F2E723686168083B96
:1030900023600098013013F0DBFFA368C900CB5810
:1030A000002B00D004233B60381C27E000986168A7
:1030B000013013F0CDFF059A00919142AED1019BF2
:1030C000012B1AD1002E0ED0236808332360002371
:1030D0007360049B3560062B03D02378019A9343D9
:1030E0002370301C0AE0201C00F00EF80398616881
:1030F00013F0AEFF0091059190E7002007B0F0BDFE
:10310000070080FFC8AC0200F7B54368041C0193B8
:10311000591C0023174A9A588A4205D204335C2B63
:10312000F8D101250D4300E0151CE800A76822F046
:1031300053FC072322686560134001223D1C0026D2
:10314000236013432370A060019B9E420DD0296829
:10315000002907D0042905D0201C0122FFF7D2FE48
:103160006B68436001360835EEE7381C22F049FCF5
:10317000F7BDC046A09A02000022F8B50768051CFA
:103180008668781C114BD358834205D204325C2ADE
:10319000F8D10123184300E0181C002428606C605B
:1031A000800022F019FCA860BC420BD0A300F158AB
:1031B000002905D0042903D0281C01221DF061FA42
:1031C0000134F1E7301C22F01CFCF8BDA09A02008B
:1031D000054B002805D00023022802D101224B0014
:1031E0001343181C7047C046C8A6020008B5024920
:1031F0001CF0C6FF08BDC0466C380300F0B593B0A4
:10320000061C06A80F1C141C0FF034F9051E23D150
:103210003368311C012603A83A1C01930DF0B6FD5A
:10322000A3082A1C3340019903A809F097FC051C48
:1032300003200EF0A7FB281C1DF056F90120404288
:103240000EF0A0FB0FF02CF9344203D01348311CD0
:103250000EF0CCFB012518E0012040420EF092FB5D
:1032600001210C4202D00D480EF0C0FB079807F078
:10327000B1F80B4900F072FD051E04D10948079909
:1032800007F0E6F801E080256D0001210C4202D034
:1032900002480EF0ABFB281C13B0F0BDC2F50200D3
:1032A00038930200C89102001FB5202168461FF024
:1032B0009CFB254822F0EEFB68461FF0CBFB234821
:1032C00022F0E8FB0EF07AFB0128F2D002280AD1A6
:1032D0001F4822F0DFFB68461FF0B1FB01221D4BA7
:1032E00000201A702DE0032803D168461FF0B2FBBE
:1032F000E8E7042804D0C1B268461FF003FCE1E708
:10330000154822F0C7FB019A002A08D1104822F084
:10331000C1FB68461FF093FB8020400011E096201F
:1033200002994000002304F09BFA002803D10B48C7
:103330001BF0B4FDC0E701210A1CFFF75FFFC305C6
:10334000BAD505B000BDC04697F50200832B030037
:103350002CF60200F6000020B2F50200B5F50200DE
:1033600030B587B002A820211FF03FFB444822F06F
:1033700091FB444822F08EFB02A81FF06BFB02A8D1
:10338000414922F098FB012809D1404822F082FBF4
:1033900002A81FF054FB00203D4B18706EE002287D
:1033A00003D13A4822F076FBE0E703281AD004283C
:1033B00008D1364822F06EFB02A81FF040FB8020A7
:1033C00040005BE0052825D1324822F063FB02A8CB
:1033D0001FF040FB0EF0F2FA6B46C1B2DC1D21700B
:1033E000032901D12948C5E7042904D1274822F03F
:1033F00051FB012427E002A81FF084FB23780D2B4A
:1034000003D1254822F046FBE4E7201C01210EF001
:10341000EDFADFE702A81FF030FB0028ACD002A8CD
:103420001FF05DFB07F090FA00280BD002A80A21DC
:103430001FF068FB02A8194922F03DFB0328D1D0F8
:103440000428ECD1002402A81FF010FB051C02A8E0
:103450001FF013FB021C9620291C4000002304F0DF
:10346000FFF9002803D10E481BF0EAFD84E7211C78
:103470000622FFF7C3FEC30500D47DE707B030BDC9
:10348000C4F5020009F602002FF602002CF6020035
:10349000F600002034F6020064F602006BF602002B
:1034A000A837030000237F2803D8034B1B5C9B072E
:1034B000DB0F181C7047C04696F6020000237F28D9
:1034C00003D8034B1B5C1B07DB0F181C7047C0465F
:1034D00096F6020000237F2803D8034B1B5C5B0792
:1034E000DB0F181C7047C04696F6020000237F28A9
:1034F00003D8034B1B5C5B06DB0F181C7047C046F0
:1035000096F6020000227F2808D8054B0132195C8C
:103510000C23194202D15F3842424241101C7047CD
:1035200096F6020000237F2803D8034B1B5CDB06C2
:10353000DB0F181C7047C04696F6020000237F2858
:1035400003D8034B1B5C9B06DB0F181C7047C0465F
:1035500096F6020030B5124B8BB003AC20C901388F
:1035600000930194032301F069FD06A861681FF030
:1035700053FA039B089A5900237A00936868079BC3
:1035800010F0E2F8021E05D006490748FDF79EFF3D
:103590000EF08BFF06A9054802F0EEF80BB030BD27
:1035A0003C9B020016F70200C8930200C4A8020068
:1035B00030B5114B89B002AC20C901380093019499
:1035C000032301F03BFD606805A9012207F0ACF977
:1035D000029B059A5900237A00936868069B10F0B5
:1035E000FDF8021E05D005490548FDF76FFF0EF0F6
:1035F0005CFF044809B030BD749B020039F702003B
:10360000C8930200FC9A020008B503480349044A23
:103610001CF082FE034808BDC8910200E62D03009D
:103620005DF70200FC9A020008B503480349044A0A
:103630001CF072FE034808BDC8910200E62D03008D
:10364000A1F80200FC9A0200F8B5041C0D1CA36846
:10365000002B0AD0334AE968914206D0EB58002B80
:1036600003D00422E3681A605AE0A86B002820D037
:10367000062163680430DB0019430022FFF742FC97
:10368000031E16D0227C002A02D0002021680BE005
:103690002068002807D0234AE968914203D0224AD3
:1036A000954200D00069291C5A68E368FEF744FB84
:1036B00036E02368002B03D16E6B002E14D12FE06F
:1036C000227C002AF8D1174AE9689142F4D0164AC0
:1036D0009542F1D018696168E268FEF76FFBE36814
:1036E0001B68002BE8D01BE075680836002D17D04A
:1036F00000276B1E0C4A9F420CD2BB00F15891422E
:1037000006D0201CFFF7A0FFE3681B68002B07D141
:103710000137EEE7054BED18AD00AD59954296D156
:10372000F8BDC046DD39000048B30200FFFFFF3F8F
:10373000F0B5146889B0002C1FD143685E6B002E71
:103740001BD0171C736803AD01938368083603937D
:103750006960AC60EA602C74019B9C4209D0A300B4
:10376000F158281CFFF770FF3B68002B05D101348E
:10377000F2E7281C0249FFF767FF09B0F0BDC04619
:1037800048B3020008B50B1C02495A681CF0C4FD7E
:1037900008BDC04679F9020070B50E1C00218AB040
:1037A000041C151C05A814220091019124F01DFE93
:1037B000202307936B46059408931C23002D02D009
:1037C000042D07D11A23216805A80693FFF73CFFB3
:1037D000022106E01B23216805A80693FFF734FFAA
:1037E00003210098042805D12069311C2A1C07F008
:1037F00067F80DE000280BD002AB0022029403967C
:103800000495FEF75DFA031C0248042D00D1181C34
:103810000AB070BDFC9A0200F0B5204B82008BB05C
:10382000D25805AE002372601422019003AF0591B7
:103830000D1C301C096803937B60B260F760337421
:10384000FFF702FF039C042C05D101982969FEF7BC
:10385000CDF9041C1EE0002C0DD0201C291C1CF0EE
:103860004AFE019B041C022B14D106F0C9FE012460
:10387000400004430EE0019B022B0BD12433301C8B
:1038800029687360FFF7E0FE3B68002B02D101243A
:103890006D002C43201C0BB0F0BDC046D09D020033
:1038A000F0B5161C7242724189B00C1C1F32002305
:1038B0000492082201A903AD0691071C2168281C67
:1038C000019302932B7403940592FFF7BDFE019BB5
:1038D000002B08D1002E06D11F33281C21686B60F5
:1038E000AE60FFF7B1FE0198042819D1206906F0F7
:1038F00071FD164BC2689A420ED1002E07D0236884
:10390000586821F0E8F9011C381C1CF039FC8022B1
:10391000381C324321690BE0381C2169321C07E056
:10392000002808D0211C1CF0E6FD0022011C381CD8
:1039300006F06AFD08E0201C1EF090FD0449021C00
:10394000231C381C1CF0E8FC09B0F0BDB5130000C6
:1039500086F9020038B5041C0D1C0B491CF010FC44
:103960006968201C002206F04FFD201C07491CF04E
:1039700007FCA968201C002206F046FD201C044913
:103980001CF0FEFB38BDC04698F9020083F102002E
:10399000832B0300F7B50025436808300F1C061C75
:1039A0002C1C0193019B9D4212D0AB00F358094A95
:1039B00093420BD0084AD968914202D03B6001344F
:1039C00004E0586B391CFFF7E5FF24180135E9E7DF
:1039D000201CFEBD48B30200DD390000F0B58FB0F9
:1039E000051C0F1C406B05A901920293FFF7D2FF43
:1039F000061DB600301C21F0DDFF041C002120C094
:103A00001CF001FE321C201C103A1030002124F062
:103A1000ECFC012F05D1029B1B680393042B00D102
:103A200083E00922002309A8426007AE0332291C63
:103A30008260C6600374079373600993FFF704FE06
:103A40000798042807D10598391CC668019A029B7B
:103A5000B047206123E0002821D0019A3A4306D1E3
:103A6000012106AB0695FEF72BF9041C17E0019B1C
:103A70005C003C190134A400201C21F09BFF221F94
:103A80000390029920C024F093FC791C3068019ABD
:103A9000039BFEF715F9041C039821F0B2FF201CCC
:103AA00006F098FCA84240D10023082209A8291C4E
:103AB000089307930B9309940A92FFF7C5FD079BA0
:103AC000002B32D00199394305D1081C07AA1CF0FC
:103AD0001AFD061C1CE0019B5E00BE190236B600F2
:103AE000301C21F067FF321C051C079B083A03605D
:103AF0000393089B02994360083024F059FC381C5A
:103B000001992A1C1CF0FFFC061C281C21F079FFDF
:103B1000074B9E4209D0301C1EF0A0FC0549021C38
:103B20000548FDF7D3FC0EF0C0FC201C0FB0F0BD23
:103B3000FC9A0200A1F902000897020038B5C56896
:103B4000041C002D06D1044962680448FDF7BEFC40
:103B50000EF0ABFCA84738BDC9F902000897020077
:103B6000F8B5041C0F1C161C1D1C1CF079FE002847
:103B700009D1201C1EF072FC0949021C0948FDF7FE
:103B8000A5FC0EF092FC042801D1206902E0211C62
:103B900006F012FC391C321C2B1CFEF791F8F8BD04
:103BA00096F3020008970200F0B5154B89B0161C79
:103BB0008200D5580C1C0C220021071C684624F0FA
:103BC00014FC182303A84560836000256B46216818
:103BD000C36005740394FFF737FD0098042805D1EE
:103BE000381C2169321CFEF7F3F907E0002805D0E4
:103BF0000120291C6A4602961CF085FC09B0F0BD24
:103C0000889C0200F0B585B0071C0D1C081C161C12
:103C100001A902AA21F0E4FF0023019902988B4236
:103C20000CD09A008258D468002C05D123495268E0
:103C30002348FDF74BFC26E00133F0E73C2021F060
:103C4000CBFE204B041C03601F4B476083601F4B5F
:103C50004563C3601E4B866303611E4B03A943612A
:103C60001D4B83611D4BC3611D4B03621D4B4362A2
:103C70001D4BC362281CFFF78DFE012805D9104893
:103C80001A491CF067FB0EF010FCA36B4E21181DA7
:103C90000022FFF737F9051E0DD0032243681A40B2
:103CA00009D11B685B68F22B05D1031D0121104867
:103CB0001CF031FE6860201C05B0F0BDE6F9020082
:103CC000089702004C9C0200A1380000DD3900007A
:103CD000613B000019380000A93B00008B0802007E
:103CE00099370000DB090200970902000FFA020071
:103CF000889D020037B51C1C00230D1C0093081C76
:103D00000333111C012201F067F9012D09D0032DA5
:103D10000BD1206801F088FD6168A268FFF772FF8F
:103D200009E0206806F056FB05E0034903481CF053
:103D300011FB0EF0BAFB3EBD3DFA020008970200EF
:103D400038B5051C0C200C1C21F034FE024B4560DC
:103D50000360846038BDC046109D0200F8B50F1C9A
:103D6000B8421ED0032404401DD1134B02689A426E
:103D70001BD1466B002E1AD075680836002D18D05E
:103D80006B1E9C4208D2A300F058391CFFF7E6FFD7
:103D900000280FD10134F3E7084BED18AD00A85906
:103DA000DEE7012006E0002004E0201C02E0301CD9
:103DB00000E0281CF8BDC0464C9C0200FFFFFF3FFE
:103DC000F0B585B0051C0191081C8B0710D10B685C
:103DD000154A934204D10123029301AB03930DE0F2
:103DE000124A934204D102A903AA21F0F9FE05E088
:103DF0000F4910481CF0AEFA0EF057FB0024029E4B
:103E0000039FB4420BD0A300F9580B4B994208D042
:103E1000281CFFF7A3FF002803D10134F1E707486E
:103E200000E0074805B0F0BD4C9C0200F0E1020044
:103E300059FA02000897020048B30200C8A602001F
:103E400084A6020008B5830703D1064B02689A4294
:103E500005D0054905481CF07DFA0EF026FBFFF75A
:103E6000AFFF08BD4C9C020092FA020008970200C6
:103E7000F0B5214B8DB005AC0138009304310194AD
:103E8000072301F0DBF8A0681C4D0027A84202D0F0
:103E900006F08AFBC7B260691826A84202D020F05B
:103EA00035FF061CA0691922A84202D020F02EFF7F
:103EB000021C2069A8420DD003AA022106F038FC9A
:103EC000039B186820F022FF039B061C586820F013
:103ED0001DFF021C71B252B203A80EF0ABFF03A883
:103EE00005990FF003F803A861683A1CE3680FF026
:103EF0000DF8281C0DB0F0BD6C9E0200FC9A02006B
:103F000008B50DF04FFD034B002800D1024B181CE3
:103F100008BDC04684A60200C8A60200F0B5051C74
:103F20008BB008680C1C02F0FFF8049004A81CF089
:103F3000CAFD0027049B03900693069B197800296D
:103F400012D0081CFFF7C6FA0126002807D006A8E1
:103F50001CF0CBFD069B1B78732B00D0061C069B28
:103F6000BF1901330693E8E7381C0EF067F9012208
:103F7000009007A9606806F0D7FC079B089A059394
:103F80009B1801920293022D0AD9A06806F00CFB3F
:103F9000002802DA089BC01826D4059B1818059043
:103FA00000240DE0291C01F035FC059B009A5D19E9
:103FB000A31C9B00059501349850049B0133049386
:103FC000BC4230D2049B187800282CD0FFF782FA2C
:103FD0000125002803D004A81CF087FD051C0598C6
:103FE000029A43199A4205D2104911481CF0B2F9BD
:103FF0000EF05BFA049B1B78732BD3D0009BA600BA
:104000009E190195019B0436002B0AD0049B03984E
:10401000197805AA0BF036FB019B7060013B0193F8
:10402000F0E76419C9E700980BB0F0BDB5FA0200DB
:1040300018920200F0B589B0039101921E1C02F0A3
:1040400073F8049004A81CF03EFD00250290B542D0
:104050004ED2049B187800284AD0FFF73BFA01247F
:10406000002803D004A81CF040FD041C039B019A07
:104070001B199A4205D21F491F481CF06BF90EF01C
:1040800014FA049B1B78732B04D02D190E9BAF00E0
:10409000DF191CE00E9B6F1CAD00E85805A901223A
:1040A00006F042FC069B251E9D4200D91D1C2A1CC1
:1040B0000599039824F07CF9039B621B5819002191
:1040C00024F093F9039B3D1C1C1903940CE0002C75
:1040D0000AD0049B02981978A3005B42FA5803ABFC
:1040E0000BF038FB013CF2E7049B01330493AEE78D
:1040F00009B0F0BDB5FA020018920200F0B50E1C2E
:1041000089B0039001CE0F1C1CF005FD4410211C4A
:1041100004A81EF081FC069D221C281C002124F00E
:1041200064F9039B00962A19013B3868291CFFF7A4
:1041300081FF04A9024801F01FFB09B0F0BDC04691
:10414000C4A8020030B50C1C89B0051C02224868C6
:1041500005A906F0E9FBA06806F026FA002809DAAE
:10416000069B0393C01805D509490A481CF0F2F8CC
:104170000EF09BF9059B069A1918201C0C309A1812
:104180000090EB1E2068FFF755FF034809B030BDD3
:10419000B5FA020018920200FC9A0200F7B5CC1C96
:1041A000A400071C201C0E1C019221F003FC221C01
:1041B000051C054B4760866003600C3A01990C3082
:1041C00024F0F6F8281CFEBD849F0200F0B58BB0E9
:1041D000079310AB80CB041C01911B78062A11D8E1
:1041E000012A05D93F230B700B1C0133019301E019
:1041F000002A02D0002301990B7001239342AD41A4
:1042000068423BE2002809DA019B019901330093DF
:104210002D230B7080231B06C41807E00199009121
:10422000002B03D00131009101990B70FF21C905CA
:10423000081C019B20400993231C88421FD1202386
:10424000079A00991A40131C64024E22CD1C002CC0
:1042500009D100985A4049214270462259405340A2
:104260000170837007E000991A430A7041214B40A6
:1042700000994B708A7000232B70019BD0E1002FB6
:1042800000DA0627551E0099019A521AAD1820220D
:10429000079911430291672903D1002F12D10127F9
:1042A00010E0002B1DD1029B662B0DD17B1CAB4275
:1042B00000DBAF1E6623039300237D1C049305934C
:1042C0001E1CE9E0002B0CD17B1DAB4200DBAF1FB5
:1042D000029B652B00D0CDE003933A3B002504936D
:1042E000CCE0B64A934271D8201CB54913F01AF8B5
:1042F000431E9841002620233030059004930396F6
:10430000B04B211CF05813F003F800280AD0049A8F
:10431000039B944663440393AB4B201CF15813F06A
:104320002FFC041C049B04365B100493182EE7D169
:104330002D230493A14B039EA34213D3201CA04919
:1043400012F0F0FF002804D0002E09D12B23049393
:1043500006E0201C9D4913F013FC0136041C01E00B
:10436000FE24A405029B662B03D0672B24D1042EC8
:1043700022DC6A46009B127D1A70029B672B01D1DA
:10438000731EFF187B1CAB4200DBAF1E002F00D159
:1043900055E12E23009A3D1C5370131C0233013E3D
:1043A0000093002E6DD0002D04D03022013D1A70F4
:1043B0000133F4E7049565E06B1FBB4200DD48E183
:1043C000029A672A63D0AF1F131C62E000262023E5
:1043D000039604937C4B211CF05812F08FFF0028A9
:1043E0000AD0049A039B944663440393754B201CA4
:1043F000F15813F0C5FB041C049B04365B100493B6
:10440000182EE7D1201C7149039E12F08BFF002863
:1044100005D0201C6E4913F0B3FB0136041C029B2F
:10442000662B0AD1AE420BDAF3190133AB421ADB29
:10443000AD1BAF1E17D56F1E15E0029B652B05D176
:104440006B1FBB4200DDEDE0AF1FEBE0029B672B73
:1044500000D00CE13B1DAB4200DB6F1FBE4200DB16
:10446000E7E0F343FF180023BD19049301350596D7
:104470006633DCE00025029B0495039305952E1C12
:104480000AE0049601235B4205936733CFE01F1CCB
:10449000029B002503930595FB43DB171F40039BFD
:1044A000652B01D17D1C06E0039B672B03D13D1ECC
:1044B00001D101252F1C00230693069BAB4225DA70
:1044C000201C13F00DFE009B009A01330893031C7F
:1044D00030331370059B069A934207D1002F05D005
:1044E000009B009A023308932E23537013F018FE9A
:1044F000011C201C13F076FC344913F041FB069B91
:10450000041C01330693089B0093D6E7029B009D91
:10451000662B02D1012E62DCA1E0201C2D4912F095
:1045200001FF00283FD0009B013B1A782E2AFBD0C8
:10453000111C3039092902D9013301930AE0392AC3
:1045400003D0013201931A7004E030221A70019AEC
:104550009342E9D1019B1B78302B1CD1019A5278F0
:104560002E2A0BD10399662908D001994B70049B20
:104570000A702D2B01D1013E00E00136009D01356E
:104580002B1C019A934204D95A1E11781970131CDE
:10459000F7E731231370094B9C4204D8039B663B19
:1045A0005A425341FF1A029B672B18D1002F16DD88
:1045B0006B1E1A78302A0FD11D1CF9E7FFFF7F3FD1
:1045C000F8FF7F3FD89F0200C09F020000002041FB
:1045D000CDCCCC3D0000A0402E2A00D11D1C049B58
:1045E000002B1AD02023079A0A211A40131C4522B7
:1045F00013432B706B461B7C301C6B7012F032FD2A
:104600000A2112F015FE3031A970301C0A2112F077
:104610000FFE2C1D3031E970251C00232B70099BE7
:10462000E81A2BE02B230025049305953A330393D6
:1046300032E7672303933C3B002504932BE7009B61
:1046400004970133009301235B420593673303937F
:1046500003E0029B03930023059300251FE7201C22
:10466000074912F05FFE002800D05CE7B7E7029B25
:10467000002503932B230595049310E70BB0F0BDA1
:104680000000A040FF2310B50324DB05CB18A34393
:10469000021C181CA24213D0042A09D00021002AAF
:1046A0000ED112F01BFE0749002809D0064907E089
:1046B0008022022012069B18A343044A0343991840
:1046C000081C10BD84A60200C8A60200000080805D
:1046D000FF23DB0510B5041CC818032386B09843DC
:1046E00004330093002302A9019310226733FFF7DC
:1046F0006DFD02A9201C1BF043FD02A82E2123F012
:1047000061FF00280FD102A8652123F05BFF00287C
:1047100009D102A86E2123F055FF002803D1201CE7
:1047200002491BF02DFD06B010BDC046EB5303003F
:1047300030B51D1C002385B00C1C0093081C111CF7
:104740001A1C013300F048FC002C21D02868124BC1
:104750000340062B06D0032318420DD10F4A0168EF
:10476000914209D103A901F0F5FC002303990093BC
:104770001A1C04F067F80CE00340022B09D005F086
:1047800077FF03239843013B1843054BC01800E013
:10479000044805B030BDC046070080FFC8AC020029
:1047A000000080800200808070B5051C86B0101C5F
:1047B000019105F05DFF041C0390681F182800D9C3
:1047C000B0E012F0A1FB0D10161B2C37686DAFAFD7
:1047D000AFAFAF0D10161B2C3768898E93989D00D4
:1047E0000198211C54E00198211C13F0FBFA019060
:1047F0008FE00198211C13F0C3F9F8E7201C002179
:1048000012F06CFD002805D0484949481BF0A2FD74
:104810000DF04BFE01A803A91CF0FBF979E0201C68
:10482000002112F05BFD0028EED10198211C12F04E
:10483000B5FFDCE7201C002112F050FD0028E3D179
:10484000211C019816F090FA0021051C019012F02D
:1048500045FD002807D0039A0023002A01DA8023AF
:104860001B06019355E00021281C12F03DFD431E5C
:1048700098410124039E404204400021301C12F064
:1048800033FD431E9841E4B2844242D0281C311CBF
:1048900012F008FEABE70198211C16F045FBA6E7D5
:1048A000201C002112F01AFD0028ADD101A803A997
:1048B0001CF0AFF903220220019B1E4993430343DE
:1048C0005B180493039B934303435B1804A905936C
:1048D0000DF0B4FC031C26E00198211C12F004FD2D
:1048E00012E00198211C12F013FD0DE00198211C2B
:1048F00012F0F4FC08E00198211C12F0FFFC03E028
:104900000198211C12F00EFD0B4B00280BD10B4B14
:1049100009E00323019A02209A43131C054A03432A
:104920009B1800E00023181C06B070BD39F302008C
:10493000749602000000808084A60200C8A60200CF
:1049400070B5061C0D1C002811DD002906DD154878
:1049500012F088FB0124864213DC11E0C020311CD8
:10496000000612F07FFB012485420ADB08E00029E3
:1049700009DDC020000612F075FB0124864200DB31
:104980000024E4B20BE00024A04208D00548311C0A
:1049900012F068FB0123854200DB231CDCB2201CE3
:1049A00070BDC046FFFFFF3F031C203B5E2B00D9BC
:1049B0003F2005235843024BA0381B681818704746
:1049C0007C00002038B5051C081C684301304010ED
:1049D00008300C1C20F0EEFF0122044B85710360AF
:1049E000037944719343037138BDC04698A2020015
:1049F00038B5051C182020F0DDFF124B041C0360A5
:104A0000114B8360002303756B68EA68C3604260E2
:104A10002A7CA96882755818206100290BD0187863
:104A20000523E075002A09D1FFF7BEFF1CF093F9BA
:104A30000130607503E02023E3751B3B6375201C88
:104A400038BDC04624A2020084A2020070B5061C34
:104A5000081C141C05F0A8FD051C201C05F0A4FD75
:104A6000041C002D01DB002802DA0E480E490BE081
:104A7000301C1CF0CDF9854204DA301C1CF0D6F94C
:104A8000844205DB074809491BF064FC0DF00DFD6D
:104A9000301C291C221C1CF0AEF9012340001843D5
:104AA00070BDC04618920200C6FA0200DFFA02008A
:104AB000F8B50C680D1C2379DB0702D519481A4993
:104AC0000DE0486805F070FD071CA86805F06CFD56
:104AD000061C002F01DB002805DA144814491BF0DE
:104AE00039FC0DF0E2FCE86805F05EFD051E092DBD
:104AF00002D90E480F49F2E7201C1CF089F98742C1
:104B000004DA201C1CF092F9864202DB07480A49AD
:104B1000E5E7201C391C321C2B1C1CF04EF9074801
:104B2000F8BDC04608970200EFFA02001892020092
:104B3000C6FA020024FB0200DFFA0200FC9A02001F
:104B4000F7B50E1C2749041C00921BF0E5FB009BE7
:104B5000002B03D1201C24491BF0DEFB0025234F32
:104B6000201C391C1BF0D8FB0197301C1CF05EF98F
:104B7000854221DA0027301C1CF04AF987420CDA02
:104B8000391C2A1C301C1CF036F9194B19491A5CC7
:104B9000201C1BF0C1FB0137EDE7201C16491BF060
:104BA000BBFB009B002B05D1301C1CF03FF90138EA
:104BB000854211DB0135D8E7201C01991BF0ACFBC5
:104BC000009B002B03D1201C0C491BF0A5FB201CD3
:104BD0000B491BF0A1FBF7BD201C0A491BF09CFBF5
:104BE000E8E7C0463EFB020045FB020051FB020025
:104BF00053FB02006DFD0200174E03002DF602006C
:104C0000452D03004BFB0200F0B51E1C00238BB0AA
:104C10000F1C0093081C111C1A1C033300F0DCF954
:104C2000032F55D8381C12F06FF956021010306857
:104C3000684B0340062B50D0830700D0C4E0664B7E
:104C400002689A4200D0BFE047E0306805F0ACFC53
:104C5000051C706805F0A8FC02900299281CFFF75B
:104C6000B1FE0390022F02D11CF0BAF82EE0B0681A
:104C700007A9012205F058FE002D08DB029B002B3E
:104C800005DB00266B43089A371C934217D0534824
:104C900053491BF05FFB0DF008FC079B1A5D131CCA
:104CA000092A00D90923DBB20398321C1CF085F8CD
:104CB0000134049BE11B9C42EFD17F190136029B1A
:104CC0009E4203D07B1904933C1CF2E703987EE0DC
:104CD00044484549DDE7454879E007A901F03AFA3B
:104CE000079B041C0593012B03D120781CF0AAFA22
:104CF0006DE00023221C181C1D1C059E111BB142D7
:104D000014DA11780A2901D03A2905D19D4200DA36
:104D10001D1C0130002307E00133202904D039296C
:104D200002D92E483249B4E70132E6E703900295F2
:104D3000002B05D0021C013203929D4200DA02933F
:104D400002980399FFF73EFE0026071C351C0494C9
:104D5000049B059A1B1B934227DA049B1B780A2BA2
:104D600001D03A2B0DD1029B9D4207DA291C381C39
:104D7000321C00231CF021F80135F4E70136002530
:104D80000FE0202B04D1381C291C321C002305E025
:104D9000392B06D8381C291C321C303B1CF00DF86E
:104DA0000135049B01330493D2E7039B381C9E42D8
:104DB0000DDA029B381C9D4209DA291C321C0023A3
:104DC0001BF0FBFF0135F4E706480A4961E70BB029
:104DD000F0BDC046070080FFC8AC02001892020078
:104DE00088FB020008970200A5FB020084A20200D3
:104DF0005EFB0200C4FB0200F0B585B00191051C0A
:104E0000081C002112F070FA041E05D02349244822
:104E10001BF0A0FA0DF049FB281C1BF0F9FF061C43
:104E2000281C1CF003F8011C301CFFF7CBFD071CED
:104E3000281C1BF0EDFF84422CDA0026281C1BF0F6
:104E4000E7FF864224DA321C211C281C1BF0D3FF0A
:104E500013F066F9019912F093FE14F0DDFF0022C1
:104E6000104B13F0EDF9104B00220290039112F059
:104E700001FA0923002804D00298039914F05AFF7C
:104E8000031C321C381C211C1BF097FF0136D5E790
:104E90000134CDE7381C05B0F0BDC046DDFB020093
:104EA000189202000000E03F00002240F0B587B0F9
:104EB00003910592061C1BF0B9FF041C301C1BF06B
:104EC000A7FF019003981BF0B1FF071EA74205D072
:104ED0001B491C481BF03EFA0DF0E7FA0198391CFB
:104EE000FFF770FD00240290019B9C4224DA00250C
:104EF000BD421FDA211C2A1C301C1BF07CFF211C28
:104F000004902A1C03981BF076FF059B002B05D00C
:104F1000049BC318092B06DD092304E0049B1B1A1C
:104F2000DA43D21713402A1C0298211C1BF045FFBC
:104F30000135DDE70134D7E7029807B0F0BDC04680
:104F400009FC020018920200F8B5041C081C0E1C93
:104F5000151C05F03FFA164FB84226D1053C042C2B
:104F600023D8201C11F0D0FF141403210700281CA3
:104F700005F07EFB07E0281C05F07AFB011CFE20F3
:104F8000800512F00BFC011C301CFFF735FF0DE013
:104F9000281C05F01FFAB84207D162426241301C5A
:104FA000D2B2291CFFF782FF00E00020F8BDC04606
:104FB00098A20200F8B5071C14200E1C151C1C1C1E
:104FC00020F0F8FC034B47608660C5600360047402
:104FD000F8BDC04668A5020010B5041C02A8007800
:104FE000002906D0002804D10F4910481BF0B2F95F
:104FF00008E09A4208D1944214D00C480C49231C72
:10500000FCF764FA0DF051FA944205D2121B0949DB
:105010000648FCF75BFAF5E79C4203D903480649CA
:105020001A1CECE710BDC04627FC020008970200DE
:1050300050FC020089FC0200BBFC0200F0B5002518
:10504000171C87B00C9C0D9E03900491059302954C
:105050000195059B9D4239D0039B9D4209D263680F
:105060009B0537D4019B049A01330193AB00D058C0
:1050700019E006212368381CDB0019430022FDF7E4
:1050800041FF00280BD16368DB0505D5194922686B
:105090001948FCF71BFA21E0A368336012E0029B79
:1050A0004068013302932379012B03D105F0BCFB47
:1050B000307007E0022B02D105F076FA01E0032BF5
:1050C00000D1306001350C340436C2E7019B039AED
:1050D000934205D2084809491BF03CF90DF0E5F967
:1050E0003B68029ADB089A4202D203480449F3E77C
:1050F00007B0F0BDEAFC02000897020001FD0200C3
:1051000022FD0200802108B5C90506480EF0BCFE4C
:10511000FE23FE2140029B05400A1843890512F038
:1051200061FE08BDF428002038B50D1C05F0A0FA7A
:10513000041C281C05F09CFA211C12F053FE051CCF
:10514000FFF7E0FF011C281C12F01AFD011C201CB7
:1051500012F0A8F903239843013B1843014BC018F0
:1051600038BDC0460000808008B5FFF7CBFF0323A1
:105170009843013B1843014BC01808BD00008080D4
:10518000F7B5019008680E1C05F00EFA019B041C8F
:105190001B4D012B06D1002824DD281C211C0EF0FC
:1051A00073FE29E0706805F0FFF9019B071C022BD4
:1051B00006D1844216DA011B281C0EF065FE1AE0A7
:1051C000B06805F0F1F9061E02DDE043C01903E006
:1051D000002807D0381B0130311C801911F042FF24
:1051E000011E04DC07481BF0A8F80DF05EF9281C2E
:1051F0000EF04AFE704300191BF017F9FEBDC046C1
:10520000F42800201892020038B5094C094D0028F6
:1052100002D00868A04203D1281C0EF05BFE05E016
:1052200005F0EEF9011C281C21F058F8201C38BDAF
:10523000FC9A0200F428002010B5041C05F02AFB9B
:1052400005F0B2F9011E04DC07481BF076F80DF0FA
:105250002CF906480EF018FE1BF0E7F80422011C9A
:10526000201C05F02DFB10BD74930200F4280020D3
:1052700038B50D1C05F098F9041C281C05F094F9AC
:10528000844204DD06481BF058F80DF00EF9013099
:10529000011B04480EF0F8FD00191BF0C6F838BDDC
:1052A00018920200F428002010B505F07DF9041EC4
:1052B0001E2C01DC002804D109481BF03EF80DF03B
:1052C000F4F880210748C9050EF0DEFD20230122F5
:1052D0001B1B5242DA4010401BF0C2F810BDC04602
:1052E00018920200F4280020F8B50327041C381C8B
:1052F0000E1C5043151C19F08BF90121331CA02200
:10530000B140C133FF33D2059B00606026706580D9
:105310009F50094BD1500022AA420CDA03230021EE
:10532000534360680132C1546068C01841706068BE
:10533000C3189970F0E7F8BD0C0500000122F0B524
:105340000378A0219A40131C894AC905051C85B021
:105350008B5032200138C046C046C046C046C046C9
:10536000C046C046C046C046C046C046C046F1D151
:10537000EFF31081019172B60020698802910299C1
:10538000884200DB07E1032141436C686118CC1CB3
:105390000394A024A1260F78E405FF09F600002F4E
:1053A0000BD0A351C046C046C046C046C046C0460A
:1053B000C046C046C046A3500AE0A351C046A35011
:1053C000C046C046C046C046C046C046C046C046AD
:1053D0000C78A127A446A0246646E405FF00E3510B
:1053E00076060AD5C046C046C046C046C046C0463E
:1053F000C046C046C046A35009E0C046A350C046C0
:10540000C046C046C046C046C046C046C0460C78EE
:10541000A127A446A0246646E405FF00E351B60692
:105420000AD5C046C046C046C046C046C046C04673
:10543000C046C046A35009E0C046A350C046C0467F
:10544000C046C046C046C046C046C0460C78A127EC
:10545000A446A0246646E405FF00E351F6060AD5FB
:10546000C046C046C046C046C046C046C046C0460C
:10547000C046A35009E0C046A350C046C046C0463F
:10548000C046C046C046C046C0460C78A127A446C8
:10549000A0246646E405FF00E35136070AD5C0465E
:1054A000C046C046C046C046C046C046C046C046CC
:1054B000A35009E0C046A350C046C046C046C046FF
:1054C000C046C046C046C0460C78A127A446A024CA
:1054D0006646E405FF00E35176070AD5C046C0469C
:1054E000C046C046C046C046C046C046C046A3509F
:1054F00009E0C046A350C046C046C046C046C046AC
:10550000C046C046C0460C78A127A446A0246646E3
:10551000E405FF00E351B6070AD5C046C046C046C1
:10552000C046C046C046C046C046C046A35009E07B
:10553000C046A350C046C046C046C046C046C0464E
:10554000C046C0460C78A127A446A0246646E405C0
:10555000FF00E351F6070DD5C046C046C046C04621
:10556000C046C046C046C046C046A3500CE0C04638
:105570000C050000C046A350C046C046C046C04609
:10558000C046C046C046C046039C0131A14200D07F
:10559000FFE60130F3E6019B83F3108805B0F0BD10
:1055A00008B50B790349002B00D103491AF0E8FD37
:1055B00008BDC0467B3803007338030037B51D1C97
:1055C0000023081C00930C1C111C1A1C0133FFF74C
:1055D00003FD064B002C06D0286805F025F9044B86
:1055E000002800D1014B181C3EBDC046C8A60200D1
:1055F00084A60200032210B502400121002A04D132
:105600000A4C03688C46A3420ED00B1C03409C46F8
:1056100008D1002A08D1036805481B1A5A425A418A
:10562000944601E001239C46604610BD8CA6020012
:1056300020D0020010B5041CFFF7DCFF0123002876
:1056400009D10322031C2240022A04D1034B234028
:10565000063B581E83410120184010BD070080FF03
:1056600008B51CF0FBFE0349021C0348FBF72EFFA4
:105670000CF01BFF40FD02000897020010B5041C4F
:10568000102020F097F9044B84600360034B4360C3
:105690000023C36010BDC046E0980200F31502006D
:1056A000F7B50E1C0193041C8B180A1C00210093F3
:1056B000009B9A420ED21378272B04D0223B5842EB
:1056C0004341DBB201E0002301210132002BEFD086
:1056D000272503E02725002900D0053D1F4F201C6A
:1056E000391C2A1C1AF018FE009B9E422FD23278D9
:1056F000AA4203D1201C1A492A1C24E05C2A02D1A8
:10570000201C18491AE01F2A0AD97F2A19D0019BA8
:10571000002B02D053B2002B0CDB201C391C12E0F2
:105720000A2A02D1201C104908E00D2A02D1201CAF
:105730000E4903E0092A04D1201C0D491AF020FD6E
:1057400003E0201C0B491AF0E7FD0136CCE7391CB9
:105750002A1C201C1AF0E0FDF7BDC0466DFD0200BA
:105760006CFD020070FD020073FD020076FD020078
:1057700079FD02007CFD0200194B70B5061C0D1C62
:1057800098420ED18868496808F0A4FE041E08D02B
:10579000281C1DF054F900230620E4002B60204350
:1057A0001DE0102020F006F96968041C8160066085
:1057B000A86808F073FE6B686060591C2B689942FA
:1057C00002D1AB68E36003E0A86820F009F9E0606B
:1057D0000023201CE268A1685354AB602B6070BDAD
:1057E000C8AC020038B5051C0C1C002A02D008F019
:1057F000A7FE03E008F06EFE002803D00623C000D9
:10580000184304E00248291C221C1BF0BAFD38BDD5
:10581000C8AC020008B5031C0A1C0248191C1BF086
:10582000B0FD08BDC4A8020008B50B4B0340062B11
:1058300001D1C0080EE0031C820708D1074A0168A5
:10584000914204D19968C06808F07AFE02E0181C01
:10585000FFF706FF08BDC046070080FFC8AC020086
:1058600008B5064B0340062B03D1C0081FF038FAD9
:1058700002E08368C0680B6008BDC046070080FF77
:10588000F0B5002689B0051C0F1C081C1C1C111C3F
:105890000096321C0323FFF79FFB0E20B74237D040
:1058A000012F0ED104A802AA102105F0FBFC02A8CA
:1058B0002168321C04F0A8FD281C04A9FFF75CFF36
:1058C00026E0206804A983071AD1124B02689A4285
:1058D00016D1FFF7C5FF104B061C20680340062BAE
:1058E00004D1C0081FF0EDF9041C00E0446810204A
:1058F000049F20F05FF805608760C660446007E0A1
:10590000012205F011F8049805990022FFF76AFFBB
:1059100009B0F0BDC4A80200070080FFF0B58BB04D
:10592000049008680D1C0692079304F053FD041CB4
:10593000686804F04FFD061EA64202D06868FFF7B3
:105940008FFE08A92868FFF78BFF041C09A9686867
:10595000FFF786FF089A0590A3180393049B271C62
:10596000022B19D9AB681F498B4206D00121301C8C
:105970000091211C02F00CFE071C049B032B0BD092
:10598000EB68184A934207D00122301C0092211C78
:10599000089A02F0FDFD0390039B381CD91B069B5F
:1059A000059A0093099B1BF0CDFC011E0AD1012032
:1059B000079B4042002B12D00B490C481AF0CAFC3E
:1059C0000CF073FD0A4B9E4205D1201C1AF00EFF0D
:1059D0000121400002E0001B4100012008430BB000
:1059E000F0BDC046FC9A020083FD0200189202003E
:1059F000C8AC0200F0B58DB0041C039104F0EAFCC1
:105A000004A9061C201CFFF72BFF019003988307B5
:105A10000BD10368314A934204D105A906AA20F0AC
:105A2000DFF810E02E4A934208D02D480121C368C8
:105A300000220293029C03ABA0470390039805A9A0
:105A400006AA1CF0AEFC0024251C059B9C421ED21D
:105A5000069BA700D85904F0BDFCB04205D02149EF
:105A600021481AF077FC0CF020FD002C01D0049B9B
:105A7000ED18069BD8591D4B0340062B03D1C008D7
:105A80001FF024F900E080682D180134DDE7291C9F
:105A9000002508A81CF0C0FF0A9C059B9D4217D258
:105AA000002D06D0201C0199049A22F081FC049B51
:105AB000E418069AAB00985807A9FFF7D1FE079A99
:105AC000011C201C22F074FC079B0135E418E4E75C
:105AD000301C08A9FFF750FE0DB0F0BDF0E1020048
